:0400000093EF28F062
:1000080000C015F0E1CF16F0E2CF17F09EAA13D08A
:10001800AECFEAF21C0EE16E030EE26E01015651FC
:10002800E126D8B0E22AEAC2E6FF562B640E565DF6
:10003800D8B0566B9E9A15C000F016C0E1FF17C0E5
:04004800E2FF1100C2
:10004C000B820BAE30EF00F00368026801680068A9
:08005C000A360232FF0E120009
:0E006400026A016A006A086A036A000E12004E
:100072000B840BAE44EF00F0010E036E026A016ABC
:0A008200006A0A360232FF0E120077
:08008C000AAE029E000E1200F4
:100094000CB08CEF00F00CA232EF01F00E6A000EEF
:1000A4000264A3EF00F0F00E0214D8A46EEF00F087
:1000B400023A01380F0B02260138F00B016E0038AA
:1000C4000F0B01260038F00B006E08380F0B0026CA
:1000D4000838F00B086E0E84D89002BE87EF00F04B
:1000E40008360036013602360E2A02BE87EF00F0CB
:1000F40008360036013602360E2A02BE87EF00F0BB
:1001040008360036013602360E2A0E50036428EFF4
:1001140001F0035E0BBC08AE2DEF01F0D880800E19
:1001240008640030000E002201220222D8A02DEF24
:1001340001F0023201320032034A32EF01F02DEFB6
:1001440001F001C002F000C001F008C000F0086A2C
:10015400000E0E860264DAEF00F0F00E0214D8A44A
:10016400C2EF00F0023A01380F0B02260138F00BFF
:10017400016E00380F0B01260038F00B006E0E8460
:10018400D89002BE87EF00F00036013602360E2A00
:1001940002BE87EF00F00036013602360E2A02BE98
:1001A40087EF00F00036013602360E2A87EF00F0A2
:1001B40001C002F000C001F0006A000E0E960E8825
:1001C400026407EF01F0F00E0214D8A4F2EF00F07D
:1001D400023A01380F0B02260138F00B016E0E842F
:1001E400D89002BE87EF00F0013602360E2A02BE16
:1001F40087EF00F0013602360E2A02BE87EF00F0C8
:10020400013602360E2A87EF00F001C002F0016ABF
:10021400000E0E86026437EF01F0F00E0214D8A42B
:1002240016EF01F0023A0E84D89002BE87EF00F078
:1002340002360E2A02BE87EF00F002360E2A02BEF4
:1002440087EF00F002360E2A87EF00F0010E0C6EE5
:100254000EDF3AEF01F0020E0C6E16DF3AEF01F0FA
:10026400040E0C6EF1DE3AEF01F0080E0C6EF8DEAF
:02027400120076
:10027600E5C3E9FFE6C3EAFFEE500301E71905E12E
:10028600E5C300F0E6C301F010D0E5C300F0E6C315
:1002960001F0E54BE62B00C0E9FF01C0EAFFEECF17
:0C02A60000F00052E5E1006A016A12005D
:1002B200E9C300F00301E907005228E0E5C3E9FFC2
:1002C200E6C3EAFFEE50000A0CE0E5C3E9FFE6C32D
:1002D200EAFFE7C3D9FFE8C3DAFFEE50DE1801E117
:1002E2000FD0E5C3E9FFE6C3EAFFE7C3D9FFE8C3DE
:1002F200DAFFDE50EE5C006E016A000E015A08D091
:100302000301E54BE62BE74BE82BD2D7006A016AE3
:020312001200D7
:10031400E5C302F0E6C303F002C000F003C001F03D
:10032400024A032A00C0E9FF01C0EAFFEE5201E0DD
:10033400F3D70301E551025C006EE6510358016EE8
:0A034400010E005E000E015A1200C7
:10034E000D6A086A0050D8B4000C04180A6E0ABE72
:10035E000D1E0B6A04AE02D0041E042A00AE02D09B
:10036E00001E002A005004100A6E0ABE1FD0045050
:10037E00085E003600340836045008260036060E95
:10038E000C6E00340836045000B0085E00A008263B
:10039E0000360C2EF6D700A008260BB015D00DAEE9
:1003AE00000C001E002A081E082A000C04AE09D0FC
:1003BE0000BE04D00050086E006AF1D7006A002A11
:1003CE00000C001E0B2AD3D7082A0450085CD8A4B0
:0E03DE00E6D7086A002A00AEE2D7FF0C120034
:1003EC000B800BAE02EF02F0026A0AAEFF0E026E39
:0C03FC00016E006E0A360232FF0E120085
:080408000B6A0B86FF0E1200C7
:10041000025006180E6E086A096A0B6A03500764D8
:10042000FBEF02F006500A6E068E028E03500B6E32
:100430000750036E000E0B644BEF02F00B50075E8B
:10044000D8B4ECEF02F0070E0764BAEF02F0075ED3
:1004500000C008F001C000F002C001F0026A074EBF
:10046000ECEF02F007648FEF02F0075E00C008F0C7
:1004700001C000F0016A074EECEF02F007646DEF77
:1004800002F0075E00C008F0006A074EECEF02F0D1
:10049000076454EF02F00AC002F005C001F004C086
:1004A00000F0086A15EF04F0030E07645FEF02F036
:1004B000075E08380F0B086E074EECEF02F0D8907D
:1004C0000832074EECEF02F0D8900832074EECEFFE
:1004D00002F0D8900832ECEF02F0030E07647EEFD2
:1004E00002F0075E08380F0B086E0038F00B082684
:1004F00000380F0B006E074EECEF02F0D890003280
:100500000832074EECEF02F0D89000320832074E66
:10051000ECEF02F0D89000320832ECEF02F0030E5C
:100520000764A6EF02F0075E08380F0B086E00386C
:10053000F00B082600380F0B006E0138F00B002678
:1005400001380F0B016E074EECEF02F0D89001322C
:1005500000320832074EECEF02F0D8900132003240
:100560000832074EECEF02F0D89001320032083228
:10057000ECEF02F0030E0764D7EF02F0075E0838D5
:100580000F0B086E0038F00B082600380F0B006EBA
:100590000138F00B002601380F0B016E0238F00B0A
:1005A000012602380F0B026E074EECEF02F0D890D6
:1005B0000232013200320832074EECEF02F0D890DE
:1005C0000232013200320832074EECEF02F0D890CE
:1005D0000232013200320832096A000E0EAEE0EF3C
:1005E00003F0081E001E011E021E082A002201221E
:1005F0000222E0EF03F00750D8A401EF03F015EF5B
:1006000004F0096A02C00AF0028E068E0750035CED
:10061000076ED8B4D3EF03F0070E0764A1EF03F021
:10062000075E0450096E0550046E0650056E066A9A
:10063000074ED3EF03F0070E076476EF03F0075E73
:100640000450096E0550046E056A074ED3EF03F09F
:10065000070E076454EF03F0075E0450096E046A46
:10066000074ED3EF03F0070E07643BEF03F00AC019
:1006700002F015EF04F0030E076446EF03F0075E87
:1006800009380F0B096E074ED3EF03F0D8900932EB
:10069000074ED3EF03F0D8900932074ED3EF03F0A3
:1006A000D8900932D3EF03F0030E076465EF03F02F
:1006B000075E09380F0B096E0438F00B0926043861
:1006C0000F0B046E074ED3EF03F0D89004320932BB
:1006D000074ED3EF03F0D89004320932074ED3EF20
:1006E00003F0D89004320932D3EF03F0030E07640D
:1006F0008DEF03F0075E09380F0B096E0438F00B1D
:10070000092604380F0B046E0538F00B0426053853
:100710000F0B056E074ED3EF03F0D890053204326D
:100720000932074ED3EF03F0D89005320432093274
:10073000074ED3EF03F0D890053204320932D3EFDD
:1007400003F0030E0764BEEF03F0075E09380F0BDA
:10075000096E0438F00B092604380F0B046E0538B7
:10076000F00B042605380F0B056E0638F00B052636
:1007700006380F0B066E074ED3EF03F0D890063203
:10078000053204320932074ED3EF03F0D890063217
:10079000053204320932074ED3EF03F0D890063207
:1007A000053204320932086A000E0EAEE0EF03F0A3
:1007B000091E041E051E061E092A04220522062201
:1007C000095008260450002205500122065002223A
:1007D0000EBEF7EF03F0D8A006EF04F002320132AC
:1007E00000320832033E06EF04F010EF04F0D8B0F8
:1007F0000BEF04F0000E081E001E011E021E082A48
:100800000022012202220A7E0BEF04F0010E0C6E80
:1008100041DC17EF04F0020E0C6E3CDC17EF04F025
:10082000040E0C6E13DC17EF04F0000E0C6E1200B9
:10083000086A096A000E076203649DEF04F0025023
:1008400006180A6E075003267E0ED8A02EEF04F07D
:10085000035ED8B0A2EF04F032EF04F0035ED8A03C
:10086000A7EF04F0028E068E02C00EF001C00BF05E
:1008700000C00DF000500402F4CF0CF0015005024E
:10088000F4CF00F0F3CF08F00402F3500C26F4503C
:100890000822000E00220D500502F3500C26F450E1
:1008A0000822000E002202500402F3500826F450E1
:1008B000002202500502016A000E0122F3500026B8
:1008C000F45001220D500602F3500826F450002285
:1008D000026A000E012202220B500602F35000268B
:1008E000F4500122000E02220E500602F35001269F
:1008F000F450022202BE85EF04F0083600360136BD
:1009000002360306D8B4A7EF04F098EF04F0D880BD
:10091000800E08640030000E002201220222D8A0BE
:1009200098EF04F0023201320032034AA2EF04F0E1
:100930000AAE029E000EAAEF04F0010E32EC00F0A7
:10094000AAEF04F0020E26EC00F0AAEF04F0040E69
:0609500039EC00F012007A
:0E095600ACB202D00000FCD7E0C3ADFF12002F
:10096400E0C302F0E1C303F0E3C300F0E4C301F029
:10097400010E0301E35F000EE45B0050011009E087
:1009840002C0E1FF03C0E2FFE2C3E6FF024A032A1A
:0C099400EBD7E0C300F0E1C301F012005B
:1009A000000E0301E11902E1000EE01934E0E0C39A
:1009B000E9FFE1C3EAFFEE522EE0E2C3E5F3E3C351
:1009C000E6F3A8DC00C0E9F3E0C3E5F3E1C3E6F336
:1009D000E2C3E7F3E3C3E8F36CDC000E011802E1C5
:1009E000000E001805E1E0C300F0E1C301F015D0EE
:1009F000010E0301E025E56F000EE121E66FE2C381
:100A0000E9FFE3C3EAFFEECFE7F335DC00C0E0F334
:0C0A100001C0E1F3C5D7006A016A1200C2
:100A1C000134083609360450085E0550D8A0053C50
:100A2C00095E003601360F0E0C6E0134083609369D
:100A3C00045000A006D0085E0550D8A0053C095E05
:100A4C0005D008260550D8B0053C092600360136DD
:100A5C000C2EEBD700B006D0045008260550D8B0A9
:080A6C00053C09260000120000
:100A7400086A080E0C6E003408360450085ED8B0BC
:0E0A840002D00826D89000360C2EF5D71200AE
:100A920003500718D8A45DEF05F002500618D8A439
:100AA2005DEF05F001500518D8A45DEF05F0005088
:0E0AB2000418D8B4D8841200D8941200120090
:100AC0000450000A12E10550000A0FE10650000A26
:100AD0000CE10750000A09E1FF0E006EFF0E016EE7
:100AE0007F0E026EFF0E036EA8D0086A096A0750D7
:100AF000D8B40BEF06F00350D8B410EF06F0025054
:100B000006180A6E028E068E0E6A02C008F001C038
:100B10000CF000C00DF004500D5E0550D8A0053C4F
:100B20000C5E0650D8A0063C085E086A0C6A0D6A86
:100B3000D8A0A2EF05F0D89002320132003208327C
:100B4000010E0E6E0750035ED8A0AFEF05F07E0ECB
:100B50000E240326D8B015EF06F0B5EF05F07E0E93
:100B60000E240326D8A01AEF06F0180E0B6E0D36D1
:100B70000C3608360036013602360E360450005E5A
:100B80000550D8A0053C015E0650D8A0063C025E88
:100B900006340E120EA0D0EF05F00D80DBEF05F04D
:100BA000045000260550D8B0053C01260650D8B0A8
:100BB000062802260D900B2EB7EF05F001EF06F088
:100BC000D8900036013602360E360450005E0550CD
:100BD000D8A0053C015E0650D8A0063C025E063453
:100BE0000E10010B0D26D8B00C2AD8B4082AD8A4B0
:100BF00001EF06F008320C320D32032AD8B415EF9B
:100C000006F00AAE089E0850026E0C50016E0D50A0
:100C1000006E1DEF06F0010E04EC02F01DEF06F071
:100C2000020E32EC00F01DEF06F0040E26EC00F090
:0C0C30001DEF06F0080E39EC00F0120079
:100C3C000B6A0C6A0A6A086A0350D8B4A6EF06F06D
:100C4C00028E9E0E035E03BE31EF06F0D8B431EF78
:100C5C0006F096EF06F0036C080E035CD8A063EF69
:100C6C0006F0036E083600C008F001C000F002C0A8
:100C7C0001F0026A080E035CD8A063EF06F0036E65
:100C8C00083600C008F001C000F0016A080E035CD1
:100C9C00D8A063EF06F0036E083600C008F0006AB7
:100CAC00080E035CD8A063EF06F0036E0836086AE2
:100CBC000350D8A4D8906FEF06F00350D8B46FEF60
:100CCC0006F0D8900232013200320832032E67EF60
:100CDC0006F00BBC08A080EF06F0D8A080EF06F061
:100CEC00082AD8B4002AD8B4012AD8B4022A02BEE1
:100CFC00AAEF06F00AAEA6EF06F0021E011E001EB9
:100D0C00081E082AD8B4002AD8B4012AD8B4022A5A
:100D1C00A6EF06F0026A016A006A086AA6EF06F0FE
:100D2C000B800BAEB0EF06F0026A0AAEB0EF06F025
:100D3C00026E016E006E086E0A360232B0EF06F0DB
:100D4C00000E0C6AB1EF06F0010E0C6EF6EC01F021
:100D5C00B1EF06F0FF0E0250036E0150026E005010
:080D6C00016E0850006E120038
:100D74000301D851390806E3300ED85D03E3010EB0
:080D8400006E01D0006A1200AC
:100D8C000101566B1C0E0301E06F030EE16FE26B69
:100D9C00640EE36F000EE46FDFDD9E9AAB98AB88B8
:100DAC009D8A9C0E0C6ED70E0D6E0D2EFED70C2E42
:100DBC00FCD7010EDE6F000EDF6FDF51D95D02E153
:100DCC00DE51D85D44E3100E0C6E940E0D6E0D2E9C
:100DDC00FED70C2EFCD700001C0EE06F030EE16F4B
:100DEC00DAC3E2F3DBC3E3F3D5DD000E011802E155
:100DFC00000E00180CE09D9A9C0E0C6ED70E0D6E1A
:100E0C000D2EFED70C2EFCD7010E006E22D01C0E20
:100E1C000301E06F030EE16FDCC3E2F3DDC3E3F328
:100E2C00B9DD000E011802E1000E00180CE09D9ACD
:100E3C009C0E0C6ED70E0D6E0D2EFED70C2EFCD705
:100E4C00020E006E06D00301DE4BDF2BB6D79D9A47
:040E5C00006A120016
:100E60000A6A0350D8A40A800750D8A40A820A50FC
:100E7000D8B493EF07F0030AD8B44CEF07F00AB0E8
:100E800047EF07F006AE91EF07F08FEF07F002AEE5
:100E90008FEF07F091EF07F00250800B0A6E029E71
:100EA0000650800B069E0A18D8B45DEF07F00A5072
:100EB000D8B48FEF07F091EF07F00750035CD8B478
:100EC00067EF07F0D8A083EF07F089EF07F006502F
:100ED000025CD8B471EF07F0D8A083EF07F089EF78
:100EE00007F00550015CD8B47BEF07F0D8A083EF82
:100EF00007F089EF07F00450005CD8B493EF07F0D7
:100F0000D8B089EF07F00A52D8B491EF07F08FEF0D
:100F100007F00A52D8B48FEF07F091EF07F0D880AE
:0E0F20001200D8901200D880D884120012005F
:100F2E00800E0301D819006E800E000A005CD8B046
:100F3E006DD1D8510008016E01C0D8F3800E011892
:100F4E00006E800E6E0A005CD8A0C0D0640E046ED7
:100F5E00D8C300F0A7EC01F0120E0024056E000EAF
:100F6E0000BEFF0E066E000E062205C000F006C083
:100F7E0001F0000E06BEFF0E026E036E00360090EC
:100F8E00013602360336003600900136023603363D
:100F9E00340E0024F66E570E0120F76E000E02205E
:100FAE00F86E0900F5CFD9F30900F5CFDAF3090091
:100FBE00F5CFDBF30900F5CFDCF3640E046ED8C376
:100FCE0000F0A7EC01F008C000F00A0E046EA7ECCA
:100FDE0001F0090E0024056E000E00BEFF0E066E17
:100FEE00000E062205C000F006C001F0000E06BE7F
:100FFE00FF0E026E036E0036009001360236033687
:10100E0000360090013602360336340E0024F66E9A
:10101E00570E0120F76E000E0220F86E0900F5CF74
:10102E0000F00900F5CF01F00900F5CF02F009003C
:10103E00F5CF03F0D9C304F0DAC305F0DBC306F035
:10104E00DCC307F018EC04F000C0D9F301C0DAF3EA
:10105E0002C0DBF303C0DCF30A0E046ED8C300F04B
:10106E00A7EC01F008C000F000C001F0000E00BEB9
:10107E00FF0E026E036E046E0136019002360336C9
:10108E00043601360190023603360436340E01243E
:10109E00F66E570E0220F76E000E0320F86E090052
:1010AE00F5CF00F00900F5CF01F00900F5CF02F001
:1010BE000900F5CF03F0D9C304F0DAC305F0DBC3A2
:1010CE0006F0DCC307F018EC04F007D2800E0A0A13
:1010DE00006E800ED819005C71E20A0E046ED8C341
:1010EE0000F0A7EC01F0090E0024056E000E00BE04
:1010FE00FF0E066E000E062205C000F006C001F0BF
:10110E00000E06BEFF0E026E036E00360090013614
:10111E000236033600360090013602360336340EA0
:10112E000024F66E570E0120F76E000E0220F86EA8
:10113E000900F5CFD9F30900F5CFDAF30900F5CFA1
:10114E00DBF30900F5CFDCF30A0E046ED8C300F012
:10115E00A7EC01F008C000F000C001F0000E00BEC8
:10116E00FF0E026E036E046E0136019002360336D8
:10117E00043601360190023603360436340E01244D
:10118E00F66E570E0220F76E000E0320F86E090061
:10119E00F5CF00F00900F5CF01F00900F5CF02F010
:1011AE000900F5CF03F0D9C304F0DAC305F0DBC3B1
:1011BE0006F0DCC307F018EC04F08FD1D8C300F0B2
:1011CE00000ED8BFFF0E016E026E036E0036009049
:1011DE0001360236033600360090013602360336EB
:1011EE00340E0024F66E570E0120F76E000E02200C
:1011FE00F86E0900F5CF00F00900F5CF01F00900F7
:10120E00F5CF02F00900F5CF03F067D1800ED819A3
:10121E00006E800E6E0A005CD8A0C0D0640E046E04
:10122E00D8C300F0A7EC01F0120E0024056E000EDC
:10123E0000BEFF0E066E000E062205C000F006C0B0
:10124E0001F0000E06BEFF0E026E036E0036009019
:10125E00013602360336003600900136023603366A
:10126E00680E0024F66E570E0120F76E000E022057
:10127E00F86E0900F5CFD9F30900F5CFDAF30900BE
:10128E00F5CFDBF30900F5CFDCF3640E046ED8C3A3
:10129E0000F0A7EC01F008C000F00A0E046EA7ECF7
:1012AE0001F0090E0024056E000E00BEFF0E066E44
:1012BE00000E062205C000F006C001F0000E06BEAC
:1012CE00FF0E026E036E00360090013602360336B4
:1012DE0000360090013602360336680E0024F66E94
:1012EE00570E0120F76E000E0220F86E0900F5CFA2
:1012FE0000F00900F5CF01F00900F5CF02F009006A
:10130E00F5CF03F0D9C304F0DAC305F0DBC306F062
:10131E00DCC307F018EC04F000C0D9F301C0DAF317
:10132E0002C0DBF303C0DCF30A0E046ED8C300F078
:10133E00A7EC01F008C000F000C001F0000E00BEE6
:10134E00FF0E026E036E046E0136019002360336F6
:10135E00043601360190023603360436680E012437
:10136E00F66E570E0220F76E000E0320F86E09007F
:10137E00F5CF00F00900F5CF01F00900F5CF02F02E
:10138E000900F5CF03F0D9C304F0DAC305F0DBC3CF
:10139E0006F0DCC307F018EC04F09FD0800E0A0AAA
:1013AE00006E800ED819005C71E20A0E046ED8C36E
:1013BE0000F0A7EC01F0090E0024056E000E00BE31
:1013CE00FF0E066E000E062205C000F006C001F0EC
:1013DE00000E06BEFF0E026E036E00360090013642
:1013EE000236033600360090013602360336680E9A
:1013FE000024F66E570E0120F76E000E0220F86ED6
:10140E000900F5CFD9F30900F5CFDAF30900F5CFCE
:10141E00DBF30900F5CFDCF30A0E046ED8C300F03F
:10142E00A7EC01F008C000F000C001F0000E00BEF5
:10143E00FF0E026E036E046E013601900236033605
:10144E00043601360190023603360436680E012446
:10145E00F66E570E0220F76E000E0320F86E09008E
:10146E00F5CF00F00900F5CF01F00900F5CF02F03D
:10147E000900F5CF03F0D9C304F0DAC305F0DBC3DE
:10148E0006F0DCC307F018EC04F027D0D8C300F048
:10149E00000ED8BFFF0E016E026E036E0036009076
:1014AE000136023603360036009001360236033618
:1014BE00680E0024F66E570E0120F76E000E022005
:1014CE00F86E0900F5CF00F00900F5CF01F0090024
:0C14DE00F5CF02F00900F5CF03F012007A
:1014EA000B6A0C6A086A0350D8B4F9EF0AF002C012
:1014FA000AF0028E9E0E035E03AEE9EF0AF0036C59
:10150A00080E035CD8A0B6EF0AF0036E083600C0D6
:10151A0008F001C000F002C001F0026A080E035C84
:10152A00D8A0B6EF0AF0036E083600C008F001C072
:10153A0000F0016A080E035CD8A0B6EF0AF0036E49
:10154A00083600C008F0006A080E035CD8A0B6EF9F
:10155A000AF0036E0836086A0350D8A4D890C2EF7E
:10156A000AF00350D8B4C2EF0AF0D890023201321E
:10157A0000320832032EBAEF0AF00BBC08A0D3EFF0
:10158A000AF0D8A0D3EF0AF0082AD8B4002AD8B4AF
:10159A00012AD8B4022A02BEFDEF0AF00AAEF9EF18
:1015AA000AF0021E011E001E081E082AD8B4002ACC
:1015BA00D8B4012AD8B4022AF9EF0AF0026A016AF9
:1015CA00006A086AF9EF0AF00B800BAE04EF0BF021
:1015DA00026A0AAE04EF0BF0026E016E006E086E2C
:1015EA000A36023204EF0BF00C6A000E05EF0BF01C
:1015FA00010E0C6E000EF6EC01F005EF0BF0FF0E7B
:10160A000250036E0150026E0050016E0850006EC7
:02161A001200BC
:10161C006E0E0301D85DD8A0CAD0640E046ED8C378
:10162C0000F03AEC05F0120E0024056E066A000E6E
:10163C00062205C000F006C001F0000E06BEFF0E2B
:10164C00026E036E00360090013602360336003609
:10165C000090013602360336340E0024F66E570E17
:10166C000120F76E000E0220F86E0900F5CF00F095
:10167C000900F5CF01F00900F5CF02F00900F5CF14
:10168C0003F0000E046E000E056E000E066E7E0E4C
:10169C00076E18EC04F000C0D9F301C0DAF302C0F5
:1016AC00DBF303C0DCF3640E046ED8C300F03AEC39
:1016BC0005F008C000F00A0E046E3AEC05F0090EB5
:1016CC000024056E066A000E062205C000F006C056
:1016DC0001F0000E06BEFF0E026E036E0036009087
:1016EC0001360236033600360090013602360336D8
:1016FC00340E0024F66E570E0120F76E000E0220F9
:10170C00F86E0900F5CF00F00900F5CF01F00900E3
:10171C00F5CF02F00900F5CF03F0D9C304F0DAC31A
:10172C0005F0DBC306F0DCC307F018EC04F000C0D6
:10173C00D9F301C0DAF302C0DBF303C0DCF30A0E09
:10174C00046ED8C300F03AEC05F008C000F000C0FD
:10175C0001F0000E026E036E046E0136019002362B
:10176C000336043601360190023603360436340E45
:10177C000124F66E570E0220F76E000E0320F86E51
:10178C000900F5CF00F00900F5CF01F00900F5CF05
:10179C0002F00900F5CF03F0D9C304F0DAC305F069
:1017AC00DBC306F0DCC307F018EC04F0B1D0D85161
:1017BC000A08D8B07ED00A0E046ED8C300F03AECFA
:1017CC0005F0090E0024056E066A000E062205C0FF
:1017DC0000F006C001F0000E06BEFF0E026E036E96
:1017EC000036009001360236033600360090013682
:1017FC0002360336340E0024F66E570E0120F76EB7
:10180C00000E0220F86E0900F5CF00F00900F5CFAC
:10181C0001F00900F5CF02F00900F5CF03F0000E3E
:10182C00046E000E056E000E066E7E0E076E18EC32
:10183C0004F000C0D9F301C0DAF302C0DBF303C03B
:10184C00DCF30A0E046ED8C300F03AEC05F008C0C5
:10185C0000F000C001F0000E026E036E046E013643
:10186C0001900236033604360136019002360336F7
:10187C000436340E0124F66E570E0220F76E000E5D
:10188C000320F86E0900F5CF00F00900F5CF01F048
:10189C000900F5CF02F00900F5CF03F0D9C304F02D
:1018AC00DAC305F0DBC306F0DCC307F018EC04F078
:1018BC002FD0D8C300F0000E016E026E036E0036FE
:1018CC00009001360236033600360090013602369F
:1018DC000336340E0024F66E570E0120F76E000E00
:1018EC000220F86E0900F5CF00F00900F5CF01F0E9
:1018FC000900F5CF02F00900F5CF03F0000E046EDD
:10190C00000E056E000E066E7E0E076E18EC04F0CF
:02191C001200B7
:10191E000301DB6BD8C3E9FFD9C3EAFFEECFDAF3DD
:10192E00DA51000A0FE0DAC3E0F3ABEC04F0030186
:10193E00DB2BDB51D825E96E000ED921EA6EEECFF6
:06194E00DAF3EED71200EF
:10195400D8C3F6FFD9C3F7FFDAC3F8FF0900F5CF00
:1019640000F0005212E0D8C3F6FFD9C3F7FFDAC380
:10197400F8FF0900F5CFE0F3ABEC04F0010E03012E
:0C198400D827000ED923DA23E3D7120085
:101990000050086E0150006E0250016E0350026E3E
:1019A000036A0B6A0C6A9E0E036E0A6A020E0C6EC4
:0619B0004AEC00F01200F9
:1019B6000B6A0A6A096A086A0E6A03340836045012
:1019C600085E0550D8A0053C095E0650D8A0063C26
:1019D6000A5E0750D8A0073C0B5EE86AD8A0010E45
:1019E6000E5E0336070E0C6E0334083609360A36C9
:1019F6000B360E36045003A012D0085E0550D8A050
:101A0600053C095E0650D8A0063C0A5E0750D8A0E1
:101A1600073C0B5EE86AD8A0010E0E5E11D00826C0
:101A26000550D8B0053C09260650D8B0063C0A2613
:101A36000750D8B0073C0B26E86AD8B0010E0E2630
:101A460003360C2ED1D70234083609360A360B3641
:101A56000E36045003A012D0085E0550D8A0053CEF
:101A6600095E0650D8A0063C0A5E0750D8A0073C7F
:101A76000B5EE86AD8A0010E0E5E11D0082605504E
:101A8600D8B0053C09260650D8B0063C0A260750B1
:101A9600D8B0073C0B26E86AD8B0010E0E260236EF
:101AA600070E0C6E0234083609360A360B360E3629
:101AB600045002A012D0085E0550D8A0053C095E6D
:101AC6000650D8A0063C0A5E0750D8A0073C0B5E1D
:101AD600E86AD8A0010E0E5E11D008260550D8B0CF
:101AE600053C09260650D8B0063C0A260750D8B051
:101AF600073C0B26E86AD8B0010E0E2602360C2EDD
:101B0600D1D70134083609360A360B360E3604505C
:101B160002A012D0085E0550D8A0053C095E06500A
:101B2600D8A0063C0A5E0750D8A0073C0B5EE86AC0
:101B3600D8A0010E0E5E11D008260550D8B0053C7F
:101B460009260650D8B0063C0A260750D8B0073CEE
:101B56000B26E86AD8B0010E0E260136070E0C6E6B
:101B66000134083609360A360B360E36045001A003
:101B760012D0085E0550D8A0053C095E0650D8A0D4
:101B8600063C0A5E0750D8A0073C0B5EE86AD8A060
:101B9600010E0E5E11D008260550D8B0053C092668
:101BA6000650D8B0063C0A260750D8B0073C0B268C
:101BB600E86AD8B0010E0E2601360C2ED1D70034B5
:101BC600083609360A360B360E36045001A012D0F6
:101BD600085E0550D8A0053C095E0650D8A0063C14
:101BE6000A5E0750D8A0073C0B5EE86AD8A0010E33
:101BF6000E5E11D008260550D8B0053C09260650C1
:101C0600D8B0063C0A260750D8B0073C0B26E86A2F
:101C1600D8B0010E0E260036070E0C6E00340836BC
:101C260009360A360B360E36045000A012D0085E6E
:101C36000550D8A0053C095E0650D8A0063C0A5EB1
:101C46000750D8A0073C0B5EE86AD8A0010E0E5ECE
:101C560011D008260550D8B0053C09260650D8B044
:101C6600063C0A260750D8B0073C0B26E86AD8B0CF
:101C7600010E0E2600360C2ED1D700B00ED0045021
:101C860008260550D8B0053C09260650D8B0063CB3
:0C1C96000A260750D8B0073C0B261200AD
:081CA200067E08EC02F01200BE
:101CAA000B6A0A6A096A00500402F4CF09F0F3CFFA
:101CBA0008F001500502F4CF0BF0F3CF0AF0005000
:101CCA000502F3500926F4500A22E86A0B22015051
:101CDA000402F3500926F4500A22E86A0B2208C0CB
:101CEA0000F009C001F00AC002F00BC003F01200B4
:101CFA000450000A08E10550000A05E1FF0E006ED3
:101D0A007F0E016E58D00D6A096A086A01500010E8
:101D1A00D8B4000C015005180A6E0ABE0D1E0B6AD3
:101D2A0005AE05D0041E051E042AD8B4052A01AE44
:101D3A0005D0001E011E002AD8B4012A0150051040
:101D4A000A6E0ABE10D00EEC05F00BB020D00DAE14
:101D5A00000C001E011E002AD8B4012A081E091E02
:101D6A00082AD8B4092A000C05AE0DD001BE07D046
:101D7A000150096E0050086E016A006AE8D7016ACC
:101D8A00006A002A000C011E001E0B2ADDD7082A51
:101D9A00D8B4092A0450085CD8A4D9D70550095CDC
:101DAA00D8A4D5D7096A086A002AD8B4012A01AE8C
:081DBA00CED70000FF0C12005F
:101DC2000C6A0E6A0250D8A4FAEF0EF001C002F0BB
:101DD20000C001F0006A0E860250D8A4FAEF0EF09D
:101DE20001C002F0016A0E960E880250D8B40CEFC0
:101DF2000FF00E50035ED8A4D8A012EF0FF0D890C7
:101E020002BE18EF0FF0003601360236032E01EF44
:101E12000FF012EF0FF0010E0C6E32EC00F01CEF1F
:101E22000FF0020E0C6E39EC00F01CEF0FF0040EF6
:081E32000C6E46EC00F01200FA
:101E3A000B1E0A1E091E081E082AD8B4092AD8B47D
:081E4A000A2AD8B40B2A120089
:101E5200080E0C6EC10E0D6E0D2EFED70C2EFCD789
:061E620000000000120068
:0E1E6800C70E0D6E0D2EFED7000000001200FA
:0E1E7600030E0D6E0D2EFED7000000001200B0
:101E8400020E0C6E350E0D6E0D2EFED70C2EFCD7E9
:061E940000000000120036
:101E9A000301D06BD16BC46BC56BB2C300F0B3C383
:101EAA0001F0B4C302F0010EB227000EB323B4232B
:101EBA0000C0F6FF01C0F7FF02C0F8FF0900F5CF26
:101ECA0000F000C0C1F30052D8B459EF1FF0C1515D
:101EDA00250A0BE0B0C3E1FFB1C3E2FFC1C3E6FFCD
:101EEA00B04BB12BD04BD12BD8D7C26BC36BC46BC1
:101EFA00C56B23D0C487010EB227000EB323B423C7
:101F0A0059D0C481010EB227000EB323B42352D094
:101F1A00C483010EB227000EB323B4234BD0C58766
:101F2A00010EB227000EB323B42344D0C485010E98
:101F3A00B227000EB323B4233DD0B2C3F6FFB3C316
:101F4A00F7FFB4C3F8FF0900F5CF01F001502D0ADD
:101F5A00D1E0B2C3F6FFB3C3F7FFB4C3F8FF090079
:101F6A00F5CF01F00150200ACCE0B2C3F6FFB3C3AB
:101F7A00F7FFB4C3F8FF0900F5CF01F001502B0AAF
:101F8A00C7E0B2C3F6FFB3C3F7FFB4C3F8FF090053
:101F9A00F5CF01F00150230AC2E0B2C3F6FFB3C382
:101FAA00F7FFB4C3F8FF0900F5CF01F00150300A7A
:101FBA00BDE001D09ED7C4A301D0C491C4A701D06B
:101FCA00C495B2C3F6FFB3C3F7FFB4C3F8FF090061
:101FDA00F5CF00F0000E016E00C0D8F3BAEC06F09F
:101FEA00005235E0C26BC36BC2C300F0C3C301F039
:101FFA000A0E046E000E056E53DEB2C3F6FFB3C3BB
:10200A00F7FFB4C3F8FF0900F5CF02F0025000242D
:10201A00C26F000E0120C36F300EC25F000EC35B99
:10202A00010EB227000EB323B423B2C3F6FFB3C323
:10203A00F7FFB4C3F8FF0900F5CF00F0000E016EF8
:10204A0000C0D8F3BAEC06F00052CEE133D0B2C3E6
:10205A00F6FFB3C3F7FFB4C3F8FF0900F5CF01F0E9
:10206A0001502A0A27E1B5C3E9FFB6C3EAFFEECF5A
:10207A0000F0EECF01F000C0E9FF01C0EAFFEECFA9
:10208A00C2F3EECFC3F3B5C3E9FFB6C3EAFF020E4C
:10209A00EE24006E000EEE20016EB5C3E1FFB6C35A
:1020AA00E2FF00C0E6FF01C0E6FF010EB227000E04
:1020BA00B323B423B2C3F6FFB3C3F7FFB4C3F8FF25
:1020CA000900F5CF01F001502E0A6FE1010EB22787
:1020DA00000EB323B423B2C3F6FFB3C3F7FFB4C3EE
:1020EA00F8FF0900F5CF01F001502A0A28E1B5C32B
:1020FA00E9FFB6C3EAFFEECF00F0EECF01F000C071
:10210A00E9FF01C0EAFFEECFBFF3EECFC0F3B5C3DC
:10211A00E9FFB6C3EAFF020EEE24006E000EEE20BF
:10212A00016EB5C3E1FFB6C3E2FF00C0E6FF01C01E
:10213A00E6FF010EB227000EB323B42335D0BF6BDE
:10214A00C06BB2C3F6FFB3C3F7FFB4C3F8FF09000D
:10215A00F5CF00F0000E016E00C0D8F3BAEC06F01D
:10216A00005222E0BFC300F0C0C301F00A0E046EA1
:10217A00000E056E95DDB2C3F6FFB3C3F7FFB4C315
:10218A00F8FF0900F5CF02F002500024BF6F000EDD
:10219A000120C06F300EBF5F000EC05B010EB22778
:1021AA00000EB323B423CDD703D0BF6BC06BC58950
:1021BA00B2C300F0B3C301F0B4C302F0010EB227F8
:1021CA00000EB323B42300C0F6FF01C0F7FF02C01C
:1021DA00F8FF0900F5CFC1F3F9D0D0C300F0D1C39D
:1021EA0001F05DEF1FF0C489E3D7C5852ED1C48BFA
:1021FA00C5812BD1C58329D1C48D27D126D1C48BC2
:10220A00C48F23D1B5C3E9FFB6C3EAFFEECF00F00E
:10221A00EECF01F000C0E9FF01C0EAFFEECFCCF338
:10222A00EECFCDF3B5C3E9FFB6C3EAFF020EEE2443
:10223A00006E000EEE20016EB5C3E1FFB6C3E2FFE9
:10224A0000C0E6FF01C0E6FF000ECD1902E1000E54
:10225A00CC1904E1F20ECC6F000ECD6FCE6BCF6BB2
:10226A00CE51CC25E96ECF51CD21EA6EEE520BE06C
:10227A00010ECE25006E000ECF21016E00C0CEF3F6
:10228A0001C0CFF3EDD7BF51C0110AE0CF51C05DF5
:10229A0002E1CE51BF5D04E2BFC3CEF3C0C3CFF3A8
:1022AA00C351CF5D02E1C251CE5D05E2CE51C25F9C
:1022BA00CF51C35B02D0C26BC36BC4B716D0C2C3C3
:1022CA0000F0C3C301F0010EC25F000EC35B0050F1
:1022DA0001100BE0B0C3E1FFB1C3E2FF200EE66ECE
:1022EA00B04BB12BD04BD12BEAD7CEC302F0CFC320
:1022FA0003F0010ECE5D006E000ECF59016E00C0D4
:10230A00CEF301C0CFF30250031019E0CCC3E9FFAA
:10231A00CDC3EAFFB0C3E1FFB1C3E2FFEECFE6FFF0
:10232A00B04BB12B010ECC25006E000ECD21016EF3
:10233A0000C0CCF301C0CDF3D04BD12BD6D7C4A764
:10234A0016D0C2C300F0C3C301F0010EC25F000E73
:10235A00C35B005001100BE0B0C3E1FFB1C3E2FF61
:10236A00200EE66EB04BB12BD04BD12BEAD795D5C8
:10237A00B5C3E9FFB6C3EAFFEECF00F0EECF01F036
:10238A0000C0E9FF01C0EAFFEECFC1F3B5C3E9FF20
:10239A00B6C3EAFF020EEE24006E000EEE20016EB6
:1023AA00B5C3E1FFB6C3E2FF00C0E6FF01C0E6FF26
:1023BA00C10ECC6F030ECD6F010ECE6F000ECF6F24
:1023CA0062D7C00EC413000EC5133FD0C151000A14
:1023DA00D8B403D7C1516C0AD8B405D7C1514C0A35
:1023EA00D8B401D7C151660AD8B4FFD6C151450A3B
:1023FA00D8B4FDD6C151650AD8B4FAD6C151670A14
:10240A00D8B4F8D6C1516F0AD8B4F6D6C151640A05
:10241A00D8B4F4D6C151690AD8B4F0D6C151700AF9
:10242A00D8B4EDD6C151580AD8B4E9D6C151780A00
:10243A00D8B4E6D6C151730AD8B4E4D6C151630AF6
:10244A0097E0C151750ABDE0B3D7000EC415006EFE
:10245A00C551070B016E00500110D8B400EF1BF0F4
:10246A00C5A904D0060EBF6F000EC06FB5C3E9FF41
:10247A00B6C3EAFFEECF00F0EECF01F000C0E9FFED
:10248A0001C0EAFFEECFC6F3EECFC7F3EECFC8F333
:10249A00EECFC9F3B5C3E9FFB6C3EAFF040EEE24D3
:1024AA00006E000EEE20016EB5C3E1FFB6C3E2FF77
:1024BA0000C0E6FF01C0E6FF046A056A066A076A09
:1024CA00C6C300F0C7C301F0C8C302F0C9C303F012
:1024DA0030EC07F0010ED8B0000E006E005205E095
:1024EA00C87F030EC413000EC513CA6BCB6BC6C3D9
:1024FA0000F0C7C301F0C8C302F0C9C303F0046AFD
:10250A00056A066A076A49EC05F0000ED8A4010EAE
:10251A00006E0052D8B48AD0C9C300F0016A026AB8
:10252A00036AFF0E0016000E01167E0E005E000EF4
:10253A00015A00C0CAF301C0CBF3010E005E000EBF
:10254A00015A00C0CAF301C0CBF3030E046E000E99
:10255A00056E55EC0EF000C0CAF301C0CBF30A0EAB
:10256A00046E000E056E7DEC0EF000C0CAF301C0C9
:10257A00CBF3800E0118026E800E025C02E1000E9F
:10258A00005C05E2010E0301CA5F000ECB5B03018A
:10259A00CA510008D86F97EC07F0C6C304F0C7C346
:1025AA0005F0C8C306F0C9C307F018EC04F000C070
:1025BA00CCF301C0CDF302C0CEF303C0CFF3000EBB
:1025CA00046E000E056E000E066E7F0E076ECCC3FB
:1025DA0000F0CDC301F0CEC302F0CFC303F030EC5C
:1025EA0007F0010ED8B0000E006E005205E0010E91
:1025FA00CA5F000ECB5B1AD0000E046E000E056E89
:10260A00200E066E820E076ECCC300F0CDC301F019
:10261A00CEC302F0CFC303F030EC07F0000ED8B0FF
:10262A00010E006E005202E0CA4BCB2B800E006EE8
:10263A00800ECB19005C02E1CA51000803E3010EC7
:10264A00C16F02D0CAC3C1F3C5B118D0C5A315D092
:10265A00800ECB19006E7F0E005C02E1FC0ECA5D93
:10266A000BE3800ECB19006E800EC019005C02E1EC
:10267A00BF51CA5D01E201D001D0EFD3BF51C011F1
:10268A0006E0C5A304D0010EBF5F000EC05BC051B7
:10269A00000802E1BF51080803E2080EC16F02D028
:1026AA00BFC3C1F3C6C300F0C7C301F0C8C302F079
:1026BA00C9C303F0046A056A066A076A49EC05F0A9
:1026CA00000ED8A4010E006E0052D8B44BD1CAC372
:1026DA00D8F397EC07F000C004F001C005F002C07F
:1026EA0006F003C007F0C6C300F0C7C301F0C8C3B1
:1026FA0002F0C9C303F060EC05F000C0C6F301C0E4
:10270A00C7F302C0C8F303C0C9F30301C1510008EB
:10271A00D86F97EC07F000C004F001C005F002C0C2
:10272A0006F003C007F0C6C300F0C7C301F0C8C370
:10273A0002F0C9C303F060EC05F000C0D2F301C097
:10274A00D3F302C0D4F303C0D5F3D2C3C6F3D3C3C1
:10275A00C7F3D4C3C8F3D5C3C9F3D2C300F0D3C3F4
:10276A0001F0D4C302F0D5C303F01EEC06F0C8ECA6
:10277A000CF000C004F001C005F002C006F003C06E
:10278A0007F0D2C300F0D3C301F0D4C302F0D5C31B
:10279A0003F051EC0EF0000E046E000E056E000EF2
:1027AA00066E7E0E076E30EC07F0000ED8B0010EF2
:1027BA00006E00521AE0C6C300F0C7C301F0C8C3D6
:1027CA0002F0C9C303F0000E046E000E056E000E7F
:1027DA00066E7E0E076E08EC02F000C0C6F301C05A
:1027EA00C7F302C0C8F303C0C9F3C6C300F0C7C326
:1027FA0001F0C8C302F0C9C303F01EEC06F00301DE
:10280A00C151010F096E0A6A000E0A2209C004F0BA
:10281A000AC005F0000E0ABEFF0E066E076E0436E9
:10282A000490053606360736043604900536063611
:10283A000736000E0424F66E580E0520F76E000EB9
:10284A000620F86E0900F5CF05F00900F5CF06F06D
:10285A000900F5CF07F00900F5CF08F00850035C2E
:10286A0008E10750025C05E10650015C02E10550EF
:10287A00005C1EE30301C6C300F0C7C301F0C8C36E
:10288A0002F0C9C303F0CD0E046ECC0E056E4C0ED9
:10289A00066E7B0E076E18EC04F000C0C6F301C08A
:1028AA00C7F302C0C8F303C0C9F3CA4BCB2B5AD033
:1028BA00C6C300F0C7C301F0C8C302F0C9C303F01E
:1028CA001EEC06F0C1C304F0000E056E066E076E1C
:1028DA000436049005360636073604360490053663
:1028EA0006360736000E0424F66E580E0520F76EDB
:1028FA00000E0620F86E0900F5CF05F00900F5CFA5
:10290A0006F00900F5CF07F00900F5CF08F00850E6
:10291A00035C08E10750025C05E10650015C02E134
:10292A000550005C1FE20301C6C300F0C7C301F0F3
:10293A00C8C302F0C9C303F0000E046E000E056E90
:10294A00200E066E820E076E18EC04F000C0C6F365
:10295A0001C0C7F302C0C8F303C0C9F3010ECA5FBE
:10296A00000ECB5B0301C5A393D0C5B791D0800EEF
:10297A00000A006E800EC019005C02E1BF510A080D
:10298A0004E20A0EBF6F000EC06FC6C300F0C7C3D1
:10299A0001F0C8C302F0C9C303F01EEC06F000C080
:1029AA00CCF301C0CDF302C0CEF303C0CFF3CC51B8
:1029BA00CD11CE11CF1142E00A0E046E000E056E43
:1029CA00066E076ECCC300F0CDC301F0CEC302F091
:1029DA00CFC303F0DBEC0CF008C000F009C001F033
:1029EA000AC002F00BC003F0000E046E031808E1DF
:1029FA000450021805E10450011802E10050000ACF
:102A0A001DE1010EBF5F000EC05B0A0E046E000ED0
:102A1A00056E066E076ECCC300F0CDC301F0CEC3BF
:102A2A0002F0CFC303F0DBEC0CF000C0CCF301C022
:102A3A00CDF302C0CEF303C0CFF3B9D7800EC019CD
:102A4A00006E800E005C02E1C151BF5D21E2BF5100
:102A5A00C15DD86F97EC07F000C004F001C005F023
:102A6A0002C006F003C007F0C6C300F0C7C301F0F6
:102A7A00C8C302F0C9C303F060EC05F000C0C6F396
:102A8A0001C0C7F302C0C8F303C0C9F3BFC3C1F38F
:102A9A00050E0301BF25006E000EC021016E005015
:102AAA00C25F0150C35BBF51C01103E1C5B701D07A
:102ABA0004D0010EC25F000EC35B030EC415006E84
:102ACA00C5C301F0000E01160050011004E0010E0A
:102ADA00C25F000EC35BC4A539D0C4A312D0C4A17F
:102AEA0003D02D0EB76F02D02B0EB76FB0C3E1FF24
:102AFA00B1C3E2FFB7C3E6FFB04BB12BD04BD12B2A
:102B0A000CD0C4A10AD0B0C3E1FFB1C3E2FF200ECA
:102B1A00E66EB04BB12BD04BD12B800E006E800EDF
:102B2A00C319005C02E1C25100080FE2B0C3E1FF21
:102B3A00B1C3E2FF300EE66EB04BB12BD04BD12BB6
:102B4A00010EC25F000EC35BE8D73AD0C4B718D0F3
:102B5A00800E006E800EC319005C02E1C2510008AB
:102B6A000FE2B0C3E1FFB1C3E2FF200EE66EB04B45
:102B7A00B12BD04BD12B010EC25F000EC35BE8D73D
:102B8A00C4A312D0C4A103D02D0EB86F02D02B0E4D
:102B9A00B86FB0C3E1FFB1C3E2FFB8C3E6FFB04B01
:102BAA00B12BD04BD12B0CD0C4A10AD0B0C3E1FFBA
:102BBA00B1C3E2FF200EE66EB04BB12BD04BD12B46
:102BCA00C6C300F0C7C301F0C8C302F0C9C303F00B
:102BDA001EEC06F000C0CCF301C0CDF302C0CEF368
:102BEA0003C0CFF3C1C300F0000E016E026E036E84
:102BFA000036009001360236033600360090013660
:102C0A0002360336000E0024F66E580E0120F76EC7
:102C1A00000E0220F86E0900F5CF04F00900F5CF86
:102C2A0005F00900F5CF06F00900F5CF07F0CCC38F
:102C3A0000F0CDC301F0CEC302F0CFC303F0DBEC4A
:102C4A000CF0300E0026B0C3E1FFB1C3E2FF00C0B2
:102C5A00E6FFB04BB12BD04BD12BBF51C01103E1D2
:102C6A00C5B701D06FD0B0C3E1FFB1C3E2FF2E0EEA
:102C7A00E66EB04BB12BD04BD12BC151BF5F000ECA
:102C8A00C05BC1534DE0C107C1C300F0000E016E25
:102C9A00026E036E003600900136023603360036A5
:102CAA000090013602360336000E0024F66E580EE6
:102CBA000120F76E000E0220F86E0900F5CF04F02D
:102CCA000900F5CF05F00900F5CF06F00900F5CFA8
:102CDA0007F0CCC300F0CDC301F0CEC302F0CFC3DE
:102CEA0003F0DBEC0CF00A0E046E000E056E066EA5
:102CFA00076EDBEC0CF008C000F009C001F00AC056
:102D0A0002F00BC003F0300E0026B0C3E1FFB1C3DE
:102D1A00E2FF00C0E6FFB04BB12BD04BD12BB1D7AD
:102D2A00BF51C0110FE0B0C3E1FFB1C3E2FF300EE3
:102D3A00E66EB04BB12BD04BD12B010EBF5F000E0C
:102D4A00C05BEED7C4AB0BD0B0C3E1FFB1C3E2FFA7
:102D5A00450EE66EB04BB12BD04BD12B0AD0B0C387
:102D6A00E1FFB1C3E2FF650EE66EB04BB12BD04B6B
:102D7A00D12B800ECB19006E800E005C02E1000E92
:102D8A00CA5D11E2CA510008CA6FCB51000ECB5777
:102D9A00B0C3E1FFB1C3E2FF2D0EE66EB04BB12B1B
:102DAA00D04BD12B0AD0B0C3E1FFB1C3E2FF2B0E47
:102DBA00E66EB04BB12BD04BD12B0A0E046E000E2F
:102DCA00056ECAC300F0CBC301F07DEC0EF0300EE5
:102DDA000026B0C3E1FFB1C3E2FF00C0E6FF030172
:102DEA00B04BB12BD04BD12B0A0E046E000E056EE0
:102DFA00CAC300F0CBC301F07DEC0EF008C000F0AE
:102E0A0009C001F0300E0026B0C3E1FFB1C3E2FFF2
:102E1A0000C0E6FF0301B04BB12BD04BD12BC4A7A6
:102E2A001AD0800E006E800EC319005C02E1C251F6
:102E3A00000811E2B0C3E1FFB1C3E2FF200EE66E63
:102E4A00B04BB12BD04BD12B010EC25F000EC35B2E
:102E5A00C251C311EFE152EF0FF0C5A3F3D0800EB8
:102E6A00CB19006E800E005C02E1000ECA5D0AE218
:102E7A00010ECA5D006E000ECB59016E0050BF5F95
:102E8A000150C05BC6C300F0C7C301F0C8C302F05B
:102E9A00C9C303F01EEC06F000C0CCF301C0CDF3A9
:102EAA0002C0CEF303C0CFF3010EC16FC1510A0AAB
:102EBA0034E0C1C300F0000E016E026E036E0036EC
:102ECA00009001360236033600360090013602368B
:102EDA000336000E0024F66E580E0120F76E000E1F
:102EEA000220F86E0900F5CF01F00900F5CF02F0D3
:102EFA000900F5CF03F00900F5CF04F00450CF5DC7
:102F0A0008E10350CE5D05E10250CD5D02E10150BA
:102F1A00CC5D01E202D0C12BC9D7C151BF5DD66FCA
:102F2A00000EC059D76FD6C3BFF3D7C3C0F3CCC303
:102F3A0000F0CDC301F0CEC302F0CFC303F0C8EC5A
:102F4A000CF000C004F001C005F002C006F003C096
:102F5A0007F0C6C300F0C7C301F0C8C302F0C9C373
:102F6A0003F051EC0EF000C0D2F301C0D3F302C05B
:102F7A00D4F303C0D5F3D6C3D8F397EC07F0D2C382
:102F8A0004F0D3C305F0D4C306F0D5C307F018EC98
:102F9A0004F0000E046E000E056E000E066E7E0E24
:102FAA00076E08EC02F01EEC06F000C0CCF301C07C
:102FBA00CDF302C0CEF303C0CFF3BF51C01142E03C
:102FCA000A0E046E000E056E066E076ECCC300F084
:102FDA00CDC301F0CEC302F0CFC303F0DBEC0CF09B
:102FEA0008C000F009C001F00AC002F00BC003F0EB
:102FFA00000E046E031808E10450021805E104509B
:10300A00011802E10050000A1DE10A0E046E000ECA
:10301A00056E066E076ECCC300F0CDC301F0CEC3B9
:10302A0002F0CFC303F0DBEC0CF000C0CCF301C01C
:10303A00CDF302C0CEF303C0CFF3010EBF5F000E83
:10304A00C05BBBD7800E006E800EC019005C02E127
:10305A00BF510C0816E3BFC3D8F30EEC0BF0C6C37E
:10306A0004F0C7C305F0C8C306F0C9C307F008ECEB
:10307A0002F000C0C6F301C0C7F302C0C8F303C020
:10308A00C9F3C6C300F0C7C301F0C8C302F0C9C37D
:10309A0003F0046A056A066A076A49EC05F0000E3D
:1030AA00D8A4010E006E0052D8B477D0C6C300F07F
:1030BA00C7C301F0C8C302F0C9C303F01EEC06F08F
:1030CA00000E046E031808E10450021805E10450CA
:1030DA00011802E10050000A60E1800E006E800EC5
:1030EA00CB19005C02E1CA51010857E2CAC3D8F3FE
:1030FA0097EC07F000C004F001C005F002C006F02A
:10310A0003C007F0C6C300F0C7C301F0C8C302F08A
:10311A00C9C303F060EC05F05F0E046E700E056E15
:10312A00090E066E810E076E30EC07F0010ED8B05C
:10313A00000E006E005206E0090E0301CA5F000E7F
:10314A00CB5B05D00301080ECA5F000ECB5BCAC376
:10315A00D8F397EC07F000C004F001C005F002C0F4
:10316A0006F003C007F0C6C300F0C7C301F0C8C326
:10317A0002F0C9C303F060EC05F01EEC06F000C0D3
:10318A00CCF301C0CDF302C0CEF303C0CFF30301E9
:10319A00C66BC76BC86BC96B38D0C6C300F0C7C350
:1031AA0001F0C8C302F0C9C303F01EEC06F000C068
:1031BA00CCF301C0CDF302C0CEF303C0CFF3CCC32E
:1031CA0000F0CDC301F0CEC302F0CFC303F0C8ECC8
:1031DA000CF000C004F001C005F002C006F003C004
:1031EA0007F0C6C300F0C7C301F0C8C302F0C9C3E1
:1031FA0003F051EC0EF000C0C6F301C0C7F302C0E1
:10320A00C8F303C0C9F3CA6BCB6B010EC16FC151BE
:10321A000A0A34E0C1C300F0000E016E026E036EAA
:10322A000036009001360236033600360090013629
:10323A0002360336000E0024F66E580E0120F76E91
:10324A00000E0220F86E0900F5CF01F00900F5CF53
:10325A0002F00900F5CF03F00900F5CF04F004509D
:10326A00CF5D08E10350CE5D05E10250CD5D02E17C
:10327A000150CC5D01E202D0C12BC9D7C151BF2593
:10328A00006E000EC021016ECA510026CB510122E8
:10329A000050C25F0150C35BC5B704D0BF51C01113
:1032AA0001E104D0010EC25F000EC35B030EC41518
:1032BA00006EC5C301F0000E01160050011004E0B3
:1032CA00010EC25F000EC35BC4A539D0C4A312D0DD
:1032DA00C4A103D02D0EB96F02D02B0EB96FB0C3A3
:1032EA00E1FFB1C3E2FFB9C3E6FFB04BB12BD04B4C
:1032FA00D12B0CD0C4A10AD0B0C3E1FFB1C3E2FF05
:10330A00200EE66EB04BB12BD04BD12B800E006E47
:10331A00800EC319005C02E1C25100080FE2B0C37B
:10332A00E1FFB1C3E2FF300EE66EB04BB12BD04BDA
:10333A00D12B010EC25F000EC35BE8D73AD0C4B7E7
:10334A0018D0800E006E800EC319005C02E1C251D3
:10335A0000080FE2B0C3E1FFB1C3E2FF200EE66E40
:10336A00B04BB12BD04BD12B010EC25F000EC35B09
:10337A00E8D7C4A312D0C4A103D02D0EBA6F02D0CD
:10338A002B0EBA6FB0C3E1FFB1C3E2FFBAC3E6FFC7
:10339A00B04BB12BD04BD12B0CD0C4A10AD0B0C3A7
:1033AA00E1FFB1C3E2FF200EE66EB04BB12BD04B6A
:1033BA00D12BC1C300F0C10700524CE0C1C300F0D9
:1033CA00000E016E026E036E003600900136023660
:1033DA00033600360090013602360336000E00240A
:1033EA00F66E580E0120F76E000E0220F86E0900E4
:1033FA00F5CF04F00900F5CF05F00900F5CF06F086
:10340A000900F5CF07F0CCC300F0CDC301F0CEC35D
:10341A0002F0CFC303F0DBEC0CF00A0E046E000ED0
:10342A00056E066E076EDBEC0CF008C000F009C0F2
:10343A0001F00AC002F00BC003F0300E0026B0C340
:10344A00E1FFB1C3E2FF00C0E6FFB04BB12BD04BA6
:10345A00D12BAFD7800E006E800ECB19005C02E133
:10346A00CA5100080FE2B0C3E1FFB1C3E2FF300E58
:10347A00E66EB04BB12BD04BD12B010ECA5F000EBA
:10348A00CB5BE8D7800E000A006E800EC019005C84
:10349A0002E1BF51080803E2080EC16F02D0BFC3A0
:1034AA00C1F3C151BF5F000EC05BC15303E1C5B791
:1034BA0001D00AD0B0C3E1FFB1C3E2FF2E0EE66E1F
:1034CA00B04BB12BD04BD12BC1C3D8F397EC07F03B
:1034DA00C6C304F0C7C305F0C8C306F0C9C307F0E2
:1034EA0018EC04F075EC0AF000C0CCF301C0CDF37F
:1034FA0002C0CEF303C0CFF3C1534DE0C107C1C32D
:10350A0000F0000E016E026E036E00360090013666
:10351A000236033600360090013602360336000EB4
:10352A000024F66E580E0120F76E000E0220F86E87
:10353A000900F5CF04F00900F5CF05F00900F5CF31
:10354A0006F00900F5CF07F0CCC300F0CDC301F0B7
:10355A00CEC302F0CFC303F0DBEC0CF00A0E046E0C
:10356A00000E056E066E076EDBEC0CF008C000F06C
:10357A0009C001F00AC002F00BC003F0300E0026A9
:10358A00B0C3E1FFB1C3E2FF00C0E6FFB04BB12B0D
:10359A00D04BD12BB1D7BF51C0110FE0B0C3E1FF5F
:1035AA00B1C3E2FF300EE66EB04BB12BD04BD12B3C
:1035BA00010EBF5F000EC05BEED7C4A71AD0800E03
:1035CA00006E800EC319005C02E1C251000811E2CC
:1035DA00B0C3E1FFB1C3E2FF200EE66EB04BB12BE0
:1035EA00D04BD12B010EC25F000EC35BC251C31177
:1035FA00EFE152EF0FF0C00EC415016EC5C302F021
:10360A00000E0216000E021802E1000E0118D8A4DC
:10361A0080D0C4A927D0B5C3E9FFB6C3EAFFEECF6D
:10362A0000F0EECF01F000C0E9FF01C0EAFFEECFE3
:10363A00CCF3EECFCDF3EECFCEF3EECFCFF3B5C3CF
:10364A00E9FFB6C3EAFF040EEE24006E000EEE2078
:10365A00016EB5C3E1FFB6C3E2FF00C0E6FF01C0D9
:10366A00E6FF2FD0B5C3E9FFB6C3EAFFEECF00F0FD
:10367A00EECF01F000C0E9FF01C0EAFFEECF00F093
:10368A00EECF01F0000E01BEFF0E026E036E00C007
:10369A00CCF301C0CDF302C0CEF303C0CFF3B5C360
:1036AA00E9FFB6C3EAFF020EEE24006E000EEE201A
:1036BA00016EB5C3E1FFB6C3E2FF00C0E6FF01C079
:1036CA00E6FF800ECF19006E800E005C08E1000E46
:1036DA00CE5D05E1000ECD5D02E1000ECC5D18E283
:1036EA00030EC413000EC513006A016A026A036A54
:1036FA00CC51005ECD51015ACE51025ACF51035AD4
:10370A0000C0CCF301C0CDF302C0CEF303C0CFF3A7
:10371A004ED0C4A927D0B5C3E9FFB6C3EAFFEECF9E
:10372A0000F0EECF01F000C0E9FF01C0EAFFEECFE2
:10373A00CCF3EECFCDF3EECFCEF3EECFCFF3B5C3CE
:10374A00E9FFB6C3EAFF040EEE24006E000EEE2077
:10375A00016EB5C3E1FFB6C3E2FF00C0E6FF01C0D8
:10376A00E6FF25D0B5C3E9FFB6C3EAFFEECF00F006
:10377A00EECF01F000C0E9FF01C0EAFFEECFCCF3C3
:10378A00EECFCDF3000ECE6FCF6FB5C3E9FFB6C350
:10379A00EAFF020EEE24006E000EEE20016EB5C3A3
:1037AA00E1FFB6C3E2FF00C0E6FF01C0E6FF000E7C
:1037BA00C01902E1000EBF190FE1000E006ECF1909
:1037CA0008E10050CE1905E10050CD1902E1CC51B3
:1037DA00000A02E1BF4BC02BC00EC415006E00C028
:1037EA0005F0AED0010EC16FC1510A0A34E0C1C35F
:1037FA0000F0000E016E026E036E00360090013674
:10380A000236033600360090013602360336000EC1
:10381A000024F66E580E0120F76E000E0220F86E94
:10382A000900F5CF01F00900F5CF02F00900F5CF44
:10383A0003F00900F5CF04F00450CF5D08E103500E
:10384A00CE5D05E10250CD5D02E10150CC5D01E2A1
:10385A0002D0C12BC9D782D0010EC16FC151080A4B
:10386A0034E0C1C300F0000E016E026E036E003632
:10387A0000900136023603360036009001360236D1
:10388A000336280E0024F66E580E0120F76E000E3D
:10389A000220F86E0900F5CF01F00900F5CF02F019
:1038AA000900F5CF03F00900F5CF04F00450CF5D0D
:1038BA0008E10350CE5D05E10250CD5D02E1015001
:1038CA00CC5D01E202D0C12BC9D748D0010EC16F2D
:1038DA00C1510C0A34E0C1C300F0000E016E026E41
:1038EA00036E003600900136023603360036009029
:1038FA00013602360336D00E0024F66E570E01202A
:10390A00F76E000E0220F86E0900F5CF01F00900EB
:10391A00F5CF02F00900F5CF03F00900F5CF04F066
:10392A000450CF5D08E10350CE5D05E10250CD5D44
:10393A0002E10150CC5D01E202D0C12BC9D70ED001
:10394A000550000AD8B44ED70550C00AD8B44AD791
:10395A000550800A81E00550400AB8E0800E006EEA
:10396A00800EC019005C02E1BF51C15D03E2BFC312
:10397A00C1F30DD0800EC019006E800E005C02E10A
:10398A00C151BF5D04E2C1C3BFF3000EC06FC25193
:10399A00C3110EE0030EC415006EC5C301F0000E7C
:1039AA0001160050011004E0010EC25F000EC35B55
:1039BA00800EC019006E800EC319005C02E1C2516C
:1039CA00BF5D05E2BF51C25FC051C35B02D0C26B8B
:1039DA00C36BC40EC415016EC551080B026E0250AA
:1039EA00080A02E1400E011808E1C251C31104E0BD
:1039FA00010EC25F000EC35B1CD0C00EC415016E5F
:103A0A00C551080B026E0250080A02E1800E011825
:103A1A0010E1800E006E800EC319005C02E1C251F3
:103A2A00020805E2020EC25F000EC35B02D0C26B3F
:103A3A00C36BC4A55DD0C4A312D0C4A103D02D0EFC
:103A4A00BB6F02D02B0EBB6FB0C3E1FFB1C3E2FF65
:103A5A00BBC3E6FFB04BB12BD04BD12B34D0C4A1A2
:103A6A000BD0B0C3E1FFB1C3E2FF200EE66EB04B4C
:103A7A00B12BD04BD12B27D0C00EC415016EC55126
:103A8A00080B026E0250080A02E1800E01181BE1BF
:103A9A00B0C3E1FFB1C3E2FF300EE66EB04BB12B0B
:103AAA00D04BD12BC4AB03D0580EBC6F02D0780ECA
:103ABA00BC6FB0C3E1FFB1C3E2FFBCC3E6FFB04BCA
:103ACA00B12BD04BD12BC251C31111E0B0C3E1FFCE
:103ADA00B1C3E2FF300EE66EB04BB12BD04BD12B07
:103AEA00010EC25F000EC35BC251C311EFE174D075
:103AFA00C251C31113E0C4B711D0B0C3E1FFB1C3BF
:103B0A00E2FF200EE66EB04BB12BD04BD12B010E4B
:103B1A00C25F000EC35BC251C311EFE1C4A312D04E
:103B2A00C4A103D02D0EBD6F02D02B0EBD6FB0C342
:103B3A00E1FFB1C3E2FFBDC3E6FFB04BB12BD04BEF
:103B4A00D12B0CD0C4A10AD0B0C3E1FFB1C3E2FFAC
:103B5A00200EE66EB04BB12BD04BD12BC00EC41544
:103B6A00016EC551080B026E0250080A02E1400EAE
:103B7A0001180BE1B0C3E1FFB1C3E2FF300EE66EFC
:103B8A00B04BB12BD04BD12B27D0C00EC415016E30
:103B9A00C551080B026E0250080A02E1800E011894
:103BAA001BE1B0C3E1FFB1C3E2FF300EE66EB04BDA
:103BBA00B12BD04BD12BC4AB03D0580EBE6F02D061
:103BCA00780EBE6FB0C3E1FFB1C3E2FFBEC3E6FF2A
:103BDA00B04BB12BD04BD12B800E006E800EC0198A
:103BEA00005C02E1BF51C15D0BE2B0C3E1FFB1C3AA
:103BFA00E2FF300EE66EB04BB12BD04BD12BECD797
:103C0A00BFC300F0C0C301F0010EBF5F000EC05B6E
:103C1A0000500110D8B42AD1C00EC415006E00C0DD
:103C2A00D2F30AD1BFC300F0C0C301F0000EC0BF77
:103C3A00FF0E026E036E003600900136023603361E
:103C4A0000360090013602360336000E0024F66E66
:103C5A00580E0120F76E000E0220F86E0900F5CF0B
:103C6A0004F00900F5CF05F00900F5CF06F00900C8
:103C7A00F5CF07F0CCC300F0CDC301F0CEC302F0FC
:103C8A00CFC303F0DBEC0CF00A0E046E000E056ED7
:103C9A00066E076EDBEC0CF008C000F009C001F0FC
:103CAA000AC002F00BC003F0300E0024C16FD3D05B
:103CBA00C4AB45D0BFC300F0C0C301F0000EC0BF03
:103CCA00FF0E026E036E003600900136023603368E
:103CDA0000360090013602360336280E0024F66EAE
:103CEA00580E0120F76E000E0220F86E0900F5CF7B
:103CFA0004F00900F5CF05F00900F5CF06F0090038
:103D0A00F5CF07F0CCC300F0CDC301F0CEC302F06B
:103D1A00CFC303F0DBEC0CF00F0E0016000E0116F9
:103D2A00021603166B0E0024F66E580E0120F76E6B
:103D3A00000E0220F86E0900F5CFC1F344D0BFC3CC
:103D4A0000F0C0C301F0000EC0BFFF0E026E036E8A
:103D5A0000360090013602360336003600900136EE
:103D6A0002360336280E0024F66E580E0120F76E2E
:103D7A00000E0220F86E0900F5CF04F00900F5CF15
:103D8A0005F00900F5CF06F00900F5CF07F0CCC31E
:103D9A0000F0CDC301F0CEC302F0CFC303F0DBECD9
:103DAA000CF00F0E0016000E0116021603165A0E1C
:103DBA000024F66E580E0120F76E000E0220F86EEF
:103DCA000900F5CFC1F347D0BFC300F0C0C301F06B
:103DDA00000EC0BFFF0E026E036E00360090013661
:103DEA000236033600360090013602360336D00E0C
:103DFA000024F66E570E0120F76E000E0220F86EB0
:103E0A000900F5CF04F00900F5CF05F00900F5CF58
:103E1A0006F00900F5CF07F0CCC300F0CDC301F0DE
:103E2A00CEC302F0CFC303F0DBEC0CF0070E001494
:103E3A00C16F300EC1270FD0D251000AD8B4F2D6C2
:103E4A00D251C00AD8B4EED6D251800AD8B430D7EB
:103E5A00D251400AB9E0B0C3E1FFB1C3E2FFC1C326
:103E6A00E6FFB04BB12BD04BD12BCAD6C4A71AD080
:103E7A00800E006E800EC319005C02E1C251000878
:103E8A0011E2B0C3E1FFB1C3E2FF200EE66EB04B10
:103E9A00B12BD04BD12B010EC25F000EC35BC251B6
:103EAA00C311EFE152EF0FF0D0C300F0D1C301F01C
:023EBA001200F4
:103EBC00B0C3D8F3B1C3D9F38FEC0CF0810ED86F2B
:103ECC00580ED96F000EDA6FAAEC0CF0B6C3D8F30B
:103EDC00B7C3D9F3B2C3DAF3B3C3DBF3B4C3DCF3C4
:0A3EEC00B5C3DDF3C6EC06F01200CA
:103EF6000450085E0550D8A0053C095E0650D8A0BF
:103F0600063C0A5E0750D8A0073C0B5E0336070E38
:103F16000C6E0334083609360A360B36045003A0F5
:103F26000ED0085E0550D8A0053C095E0650D8A004
:103F3600063C0A5E0750D8A0073C0B5E0DD008264B
:103F46000550D8B0053C09260650D8B0063C0A26CE
:103F56000750D8B0073C0B2603360C2EDAD70234AE
:103F6600083609360A360B36045003A00ED0085E12
:103F76000550D8A0053C095E0650D8A0063C0A5E4E
:103F86000750D8A0073C0B5E0DD008260550D8B0C8
:103F9600053C09260650D8B0063C0A260750D8B07C
:103FA600073C0B260236070E0C6E0234083609361D
:103FB6000A360B36045002A00ED0085E0550D8A073
:103FC600053C095E0650D8A0063C0A5E0750D8A0FC
:103FD600073C0B5E0DD008260550D8B0053C0926D7
:103FE6000650D8B0063C0A260750D8B0073C0B2628
:103FF60002360C2EDAD70134083609360A360B3665
:10400600045002A00ED0085E0550D8A0053C095EFB
:104016000650D8A0063C0A5E0750D8A0073C0B5EA7
:104026000DD008260550D8B0053C09260650D8B054
:10403600063C0A260750D8B0073C0B260136070E69
:104046000C6E0134083609360A360B36045001A0C8
:104056000ED0085E0550D8A0053C095E0650D8A0D3
:10406600063C0A5E0750D8A0073C0B5E0DD008261A
:104076000550D8B0053C09260650D8B0063C0A269D
:104086000750D8B0073C0B2601360C2EDAD7003481
:10409600083609360A360B36045001A00ED0085EE3
:1040A6000550D8A0053C095E0650D8A0063C0A5E1D
:1040B6000750D8A0073C0B5E0DD008260550D8B097
:1040C600053C09260650D8B0063C0A260750D8B04B
:1040D600073C0B260036070E0C6E003408360936F0
:1040E6000A360B36045000A00ED0085E0550D8A044
:1040F600053C095E0650D8A0063C0A5E0750D8A0CB
:10410600073C0B5E0DD008260550D8B0053C0926A5
:104116000650D8B0063C0A260750D8B0073C0B26F6
:1041260000360C2EDAD700B00ED004500826055003
:10413600D8B0053C09260650D8B0063C0A260750DA
:08414600D8B0073C0B26120063
:10414E009DC301F0010E006E015004E00036009098
:10415E00FF0FFBD700C0A1F3001E00C0A0F39BC34E
:10416E00E9FF9CC3EAFF0050EF16120EE926030189
:10417E009F6B9F51070816E39FC300F09EC301F08B
:10418E00005004E00132019EFF0FFBD7A051EF1645
:10419E0001A002D0A151EF1242EC0FF0A151EF128B
:1041AE009F2BE7D7120EE95E34EC0FF034EC0FF0D4
:0241BE001200ED
:1041C000800E006EBB0E016E000E026E036E1200BA
:1041D0000450000A12E10550000A0FE10650000ADF
:1041E0000CE10750000A09E1FF0E006EFF0E016EA0
:1041F000FF0E026E7F0E036E98D00C6A07BE0C2A6B
:104200000D6A0B6A0A6A096A086A035002100110F3
:104210000010D8B484D0035007180E6E0EBE0D1EC9
:1042200007AE0BD0041E051E061E071E042AD8B4B6
:10423000052AD8B4062AD8B4072A03AE0BD0001E2C
:10424000011E021E031E002AD8B4012AD8B4022A75
:10425000D8B4032A035007100E6E0EBE1CD04BDEDE
:104260000CBE36D00DAE5BD0001E011E021E031E1A
:10427000002AD8B4012AD8B4022AD8B4032A081EC6
:10428000091E0A1E0B1E082AD8B4092AD8B40A2A05
:10429000D8B40B2A44D007AE15D003BE0DD00350BE
:1042A0000B6E02500A6E0150096E0050086E036AD0
:1042B000026A016A006AD6D7036A026A016A006A62
:1042C000002A000C031E021E011E001E0C8EC7D702
:1042D000082AD8B4092AD8B40A2AD8B40B2A045018
:1042E000085CD8A4BFD70550095CD8A4BBD706503A
:1042F0000A5CD8A4B7D707500B5CD8A4B3D70B6A15
:104300000A6A096A086A002AD8B4012AD8B4022ABB
:10431000D8B4032A03AEA6D70E6A0E88FF0C0E6A25
:0C4320000CA002D01DEC0FF0000F1200EA
:10432C00220E0C6E086A096A0A6A0B6A0C06D8B46B
:10433C001FD0D8900B320A320932083203320232C3
:10434C0001320032D8A0F2D70C06D8B409D00450F0
:10435C0008260550092206500A2207500B22EAD7DC
:10436C00045008260550092206500A2207500B2239
:02437C0012002D
:10437E009DC301F0010E006E015004E00036009066
:10438E00FF0FFBD700C09FF3001E9BC3E9FF9CC32A
:10439E00EAFF0050EF16120EE9260050EF1629EC38
:1043AE000FF003019F51EF12120EE95E42EC0FF077
:1043BE009F51EF149E6F9E51000A000ED8A4010E5D
:0C43CE009E6F29EC0FF09EC300F012005F
:0E43DA00570E0D6E0D2EFED7000000001200D3
:1043E800A00E0301AE6F030EAF6F9BC3B0F39CC367
:1043F800B1F39DC3B2F39EC3B3F39FC3B4F3AE0E40
:10440800B56F030EB66F4DEC0FF000C0ACF301C0F2
:10441800ADF300509B25E16E01509C21E26EE66AE7
:0A442800ACC300F0ADC301F01200B8
:104432003E0E0301B06F000EB16F6A0EB26F000E36
:10444200B36F280EB46F000EB56F100EB66F270E45
:10445200B76F33DD00C01BF37A0E0B6EC10E0C6E0C
:10446200810E0D6E0D2EFED70C2EFCD70B2EFAD719
:104472000000000003011B51010A04E01B51020A63
:0E44820001E003D0010E006E01D0006A1200AE
:104490009DC301F0010E006E015004E00036009053
:1044A000FF0FFBD700C0A1F3001C0301A06F9F6B9F
:1044B0009BC3E9FF9CC3EAFF9E6B9E51070824E360
:1044C000A051EF16120EE926A051EF163BEC0FF0AB
:1044D000A151EF123BEC0FF0120EE95EA151EF1467
:1044E000006E0CE09EC301F0010E006E015004E06E
:1044F00000360090FF0FFBD700509F1334EC0FF0F5
:0E45000034EC0FF09E2BD9D79FC300F01200B1
:10450E000050086E0150006E016A026A036A0B6A5F
:10451E000C6A960E036E0A6A00C001F008C000F025
:0A452E00086A026AE1EC0EF01200C8
:104538007CDF0050010AD8A4FCD0180E0301B06F2C
:10454800000EB16F230EB26F000EB36F250EB46F5D
:10455800000EB56F880EB66F130EB76FABDC00C0D8
:104568001BF31F0E0B6E710E0C6E1E0E0D6E0D2EB4
:10457800FED70C2EFCD70B2EFAD70000FB0E03013A
:10458800E06F010EE16FE26B640EE36F000EE46F03
:10459800B2EC04F0FB0E9B6F010E9C6F9C0E9D6F9E
:1045A800570E9E6F000E9F6FCEC2A0F3CFC2A1F32D
:1045B800D0C2A2F3D1C2A3F3D2C2A4F3D3C2A5F34B
:1045C800D4C2A6F3D5C2A7F3D6C2A8F3D7C2A9F31B
:1045D800D8C2AAF3D9C2ABF303DFFB0EE56F010E15
:1045E800E66F8AEC01F000C0CDF2C30E9B6F020E9D
:1045F8009C6F7C0E9D6F580E9E6F000E9F6F00C0C3
:10460800A0F3EEDE410ED86F560ED96F000EDA6FAA
:10461800AAEC0CF0C30E0301D86F020ED96F8FEC11
:104628000CF0FB0ED86F010ED96F8FEC0CF0F40E66
:104638000B6E820E0C6E050E0D6E0D2EFED70C2E17
:10464800FCD70B2EFAD7750EB06F000EB16F770E30
:10465800B26F000EB36FEB0EB46F000EB56FA00E05
:10466800B66F0F0EB76F26DC00C01BF3020E0A6E82
:10467800310E0B6E620E0C6E450E0D6E0D2EFED7B2
:104688000C2EFCD70B2EFAD70A2EF8D7FA0E0301F8
:10469800B06F000EB16F060EB26F010EB36F0F0E42
:1046A800B46F010EB56FA00EB66F0F0EB76F02DCB8
:1046B80000C01BF33D0E0B6EE10E0C6E3F0E0D6E2F
:1046C8000D2EFED70C2EFCD70B2EFAD700000000BB
:1046D800F80E03019B6F020E9C6F480E9D6F580EDB
:1046E8009E6F000E9F6FF4C2A0F3F5C2A1F3F6C24D
:1046F800A2F3F7C2A3F374DEF80ED86F020ED96FD7
:104708008FEC0CF03D0E0B6EE10E0C6E3F0E0D6E35
:104718000D2EFED70C2EFCD70B2EFAD7000000006A
:104728001B51010A03E0020E006E04D0010E006E58
:0647380001D0006A12002E
:10473E000900F5CFE6FF0006FBE10106F9E11200E4
:10474E00560E0201F06F090EF16FE00EF26F030EBE
:10475E00F36FFF0EEB6FFF0EEC6F000EED6F000EA2
:10476E00EE6FFF0EE26FFF0EE36F000EE46F000EB2
:10477E00E56FFF0EE66FFF0EE76F000EE86F000E9F
:10478E00E96FAC8A900EAB6E948E949C9EAA03D069
:08479E00AECF00F0FBD71200C2
:1047A60084C3DEF285C3DFF286C300F0010E026E1B
:1047B600005004E002360290FF0FFBD702C0E0F281
:1047C600021C0201DD6F87C301F0010E006E01506D
:1047D60004E000360090FF0FFBD700C0DAF2001E9F
:1047E60000C0DBF2120E03018425E96E000E85215E
:1047F600EA6E0250EF120050EF160201DC6B030165
:104806008C5302E00201DC1F0201120EE95EDC514C
:10481600000A03E0DB51EF1602D0DA51EF12CDDCCD
:10482600E80E046E030E056E000E066E076E7BDD47
:1048360000C097F301C098F302C099F303C09AF33E
:1048460097C38DF398C38EF399C38FF39AC390F3EE
:1048560088C300F089C301F08AC302F08BC303F05A
:1048660000360090013602360336003600900136D7
:10487600023603360A0E046E000E056E066E076ECD
:1048860052DD00C091F301C092F302C093F303C05E
:1048960094F300C004F001C005F002C006F003C0A6
:1048A60007F097C300F098C301F099C302F09AC3CA
:1048B60003F08BDC00C095F301C096F301C004F051
:1048C600056A0450051003E0020E006E51D095C330
:1048D600E1F291C304F092C305F093C306F094C3CA
:1048E60007F08DC300F08EC301F08FC302F090C3B2
:1048F60003F06BDC08C000F009C001F00AC002F04A
:104906000BC003F000C08DF301C08EF302C08FF31D
:1049160003C090F391C305F092C306F093C307F06A
:1049260094C308F00832073206320532089E08BCE6
:10493600088E800E0818046E800E0318045C08E1C9
:104946000250075C05E10150065C02E10050055C7F
:1049560002E20201E12BE1C201F00132019E01C037
:10496600EFF2070E015C03E2010E006E01D0006A51
:0249760012002D
:104978002A0E0301B06F010EB16F270EB26F010E40
:10498800B36F3B0EB46F010EB56FD00EB66F070E46
:10499800B76F5EEC1FF0440E0301B06F010EB16FEC
:1049A800410EB26F010EB36F630EB46F010EB56F97
:1049B800A00EB66F0F0EB76F5EEC1FF000C01BF3B2
:1049C8000050010A01E0D4D7DA0E0301B06F010EDE
:1049D800B16FE70EB26F010EB36FB00EB46F010E78
:1049E800B56FF40EB66F010EB76F5EEC1FF000C026
:1049F8001BF30050010A01E0BBD7B60E0301B06FEC
:104A0800010EB16FF20EB26F010EB36FF50EB46FF7
:104A1800010EB56F300EB66F750EB76F5EEC1FF0F6
:104A280000C01BF30050010A01E0A2D7990E030150
:104A3800B06F010EB16F830EB26F010EB36F800EAF
:104A4800B46F010EB56FF40EB66F010EB76F5EEC62
:104A58001FF0690E0301B06F010EB16F860EB26FC1
:104A6800010EB36F960EB46F010EB56FF40EB66FEC
:104A7800010EB76F5EEC1FF08C0E0301B06F010ED4
:104A8800B16F890EB26F010EB36F9B0EB46F000E3B
:104A9800B56FF40EB66F010EB76F5EEC1FF09E0E89
:104AA8000301B06F000EB16FB00EB26F000EB36F9E
:104AB800980EB46F000EB56FF40EB66F010EB76F97
:104AC8005EEC1FF07F0E0301B06F000EB16F8C0E0D
:104AD800B26F000EB36F920EB46F000EB56FB80EC2
:104AE800B66F0B0EB76F5EEC1FF00050000A01E1C5
:104AF800E9D77A0E0B6EC10E0C6E810E0D6E0D2E5F
:104B0800FED70C2EFCD70B2EFAD700000000B30EF0
:104B18000301B06F000EB16FD50EB26F000EB36F08
:104B2800D80EB46F000EB56F300EB66F750EB76F36
:104B38005EEC1FF000C01BF3030E0A6E610E0B6ED5
:104B4800C30E0C6E8E0E0D6E0D2EFED70C2EFCD7DE
:104B58000B2EFAD70A2EF8D7000003011B51010AC1
:104B680001E006D70301DE0EB06F000EB16FCD0E67
:104B7800B26F000EB36FBC0EB46F000EB56F700E3F
:104B8800B66F170EB76F5EEC1FF00050000A010EEB
:104B9800D8A4000E016E01C01BF3015201E0E2D758
:104BA8007A0E0B6EC10E0C6E810E0D6E0D2EFED799
:104BB8000C2EFCD70B2EFAD700000000C20E030102
:104BC800B06F000EB16FCB0EB26F000EB36F380E20
:104BD800B46F000EB56F100EB66F270EB76F5EEC90
:104BE8001FF000C01BF30050010A01E0C1D6B70E48
:104BF8000B6EA10E0C6EC30E0D6E0D2EFED70C2E75
:0C4C0800FCD70B2EFAD7000000001200B1
:104C1400000E0301906F000E916F000E926F7F0ED5
:104C2400936F84C39BF385C39CF386C39DF3BFEC4E
:104C340021F0020E0B6E190E0C6E810E0D6E0D2EF0
:104C4400FED70C2EFCD70B2EFAD70000000084C32D
:104C54009BF385C39CF386C39DF3CC0E9E6FA7EC98
:104C640020F0100E0C6E940E0D6E0D2EFED70C2E31
:104C7400FCD7000084C39BF385C39CF386C39DF3D8
:104C8400440E9E6FA7EC20F00A0E0B6E220E0C6EE3
:104C9400A10E0D6E0D2EFED70C2EFCD70B2EFAD7BF
:104CA40084C39BF385C39CF386C39DF3BFEC21F0BF
:104CB400020E0B6E190E0C6E810E0D6E0D2EFED7AC
:104CC4000C2EFCD70B2EFAD70000000084C39BF3F4
:104CD40085C39CF386C39DF3CC0E9E6FA7EC20F096
:104CE400100E0C6E940E0D6E0D2EFED70C2EFCD7EE
:104CF400000084C39BF385C39CF386C39DF3BE0E5F
:104D04009E6FA7EC20F0100E0C6E940E0D6E0D2EFF
:104D1400FED70C2EFCD7000084C39BF385C39CF301
:104D240086C39DF348EC22F000C08DF384C39BF34B
:104D340085C39CF386C39DF348EC22F000C08EF338
:104D440000C003F0000E046E03C001F0006A0050BE
:104D5400011004E18D5302E1006A02D0010E006EDD
:104D640000C087F3000E886F8EAF0CD0871F881F9A
:104D7400874B882B000E906F000E916F800E926F00
:104D84007F0E936F88338733889F88338733889F58
:104D940088338733889F88338733889F0F0E8D1518
:104DA4008F6F896B8A6B8B6B8C6B8FA71AD089C3BF
:104DB40000F08AC301F08BC302F08CC303F0000E31
:104DC400046E000E056E000E066E7E0E076E08EC75
:104DD40002F000C089F301C08AF302C08BF303C060
:104DE4008CF38FA51AD089C300F08AC301F08BC35A
:104DF40002F08CC303F0000E046E000E056E000E6C
:104E0400066E7D0E076E08EC02F000C089F301C047
:104E14008AF302C08BF303C08CF38FA31AD089C327
:104E240000F08AC301F08BC302F08CC303F0000EC0
:104E3400046E000E056E000E066E7C0E076E08EC06
:104E440002F000C089F301C08AF302C08BF303C0EF
:104E54008CF38FA11AD089C300F08AC301F08BC3ED
:104E640002F08CC303F0000E046E000E056E000EFB
:104E7400066E7B0E076E08EC02F000C089F301C0D9
:104E84008AF302C08BF303C08CF3046A056A066AD2
:104E9400076A90C300F091C301F092C302F093C378
:104EA40003F030EC07F0010ED8B0000E006E005293
:104EB400D8A48B7F87C300F088C301F087EC22F06D
:104EC40090C304F091C305F092C306F093C307F0B6
:104ED40018EC04F089C304F08AC305F08BC306F010
:0A4EE4008CC307F008EC02F0120086
:104EEE00C26A0001F11D006E0050C116070EC012FD
:104EFE00C08E84C300F00036009000360090005043
:104F0E00C212C280EDEC21F0C282C2A201D0FDD746
:104F1E00C4CF01F0006AC3500012000E0112C290FD
:024F2E0012006F
:104F30000050086E0150006E0250016E0350026E68
:104F4000036A0B6A0C6A9E0E036E0A6A02AEB5EF24
:104F500027F0081E001E011E021E082AD8B4002ACF
:104F6000D8B4012AD8B4022A0A8E020E0C6E4AEC7A
:044F700000F012003B
:104F74000B6A0350D8B400EF28F002500A6E028E78
:104F84008E0E035E03AE04EF28F0036C080E035C80
:104F9400D8A0DFEF27F0036E013602C001F0026AE9
:104FA400080E035CD8A0DFEF27F0036E0136016A18
:104FB4000350D8A4D890E9EF27F00350D8B4E9EF10
:104FC40027F0D89002320132032EE3EF27F00BBC16
:104FD40001A0F6EF27F0D8A0F6EF27F0012AD8B405
:104FE400022A02BE13EF28F00AAE19EF28F0021EBF
:104FF400011E012AD8B4022A19EF28F0026A016AB4
:1050040019EF28F00B800BAE1DEF28F0026A0AAEF0
:105014001DEF28F0FF0E026E016E0A3602321DEFFC
:1050240028F0010E0C6EF6EC01F01FEF28F0000ED4
:105034000C6E1FEF28F0FF0E0C6E0150006E025034
:04504400016E1200E7
:105048007A0E0B6EC10E0C6E810E0D6E0D2EFED7F4
:105058000C2EFCD70B2EFAD700000000530E0301CC
:10506800B06F010EB16F570EB26F010EB36F5D0EC8
:10507800B46F010EB56FD00EB66F070EB76F5EEC4A
:105088001FF00050010A03E1010E006E47D08A901C
:105098003D0E0B6EE10E0C6E3F0E0D6E0D2EFED703
:1050A8000C2EFCD70B2EFAD7000000008A807A0E4F
:1050B8000B6EC10E0C6E810E0D6E0D2EFED70C2ED2
:1050C800FCD70B2EFAD7000000008A907A0E0B6EE0
:1050D800C10E0C6E810E0D6E0D2EFED70C2EFCD758
:1050E8000B2EFAD7000000005A0E0301B06F010E14
:1050F800B16F500EB26F010EB36F350EB46F010E63
:10510800B56FD00EB66F070EB76F5EEC1FF000508C
:0E511800010A03E1010E006E01D0006A1200D0
:1051260042EC2CF00D0EC16E9284936A946A948EB2
:10513600B886040EB06EE10EAF6EAC84A7EC23F019
:105146008A90400EF26E810E0301846F0F0E856FFA
:10515600020E866F010E876F800E886F250E896F8F
:10516600000E8A6F8B6F8C6BD3EC23F09E9A9D9A00
:105176008A6AD56AD59E480ED76EE40ED66ED58459
:10518600D582D580F294F29AF28EC596C58659DFFD
:105196000050000A05E00A0E0001F95D01E203D0A5
:1051A6000001F92BF4D7BCEC24F0010E0301166FB5
:1051B600800E846F0F0E856F020E866F28DD00C08D
:1051C600D2F201C0D3F202C0D4F203C0D5F2010E6E
:1051D600846F8ADE87EC22F0000E046E000E056EE8
:1051E600200E066E770E076E18EC04F0CD0E046ED8
:1051F600CC0E056E4C0E066E7D0E076E51EC0EF053
:1052060000C01DF101C01EF102C01FF103C020F154
:10521600660E046E660E056EB60E066E810E076E7F
:1052260018EC04F0520E046EB80E056E2A0E066EC9
:10523600830E076E08EC02F000C0D6F201C0D7F26A
:1052460002C0D8F203C0D9F2800E0301846F0F0E9C
:10525600856F020E866FDBDC00C0D2F201C0D3F28E
:1052660002C0D4F203C0D5F282DE00C021F101C033
:1052760022F1846B39DE87EC22F000C023F101C0F5
:1052860024F102C025F103C026F1000E046E400E83
:10529600056E1C0E066E8B0E076E18EC04F0000EE3
:1052A600046E000E056E000E066E890E076E60EC2B
:1052B60005F075EC0AF000C080F301C081F302C06E
:1052C60082F303C083F380C319F181C31AF182C349
:1052D6001BF183C31CF121C115F122C116F1230E66
:1052E600006E000E016E21C104F022C105F055ECDE
:1052F6000EF00050010117250301176F015001013F
:1053060018210301186F000E18BFFF0E196F1A6FD0
:105316000050175F0150185B000E18BFFF0E196F83
:105326001A6F21C100F022C101F0000E010122BF57
:10533600FF0E026E036E003600900136023603360B
:10534600E20E0024F66E560E0120F76E000E0220C5
:10535600F86E0900F5CF00F00900F5CF01F0000E58
:1053660001BEFF0E026E036E80C304F081C305F01A
:1053760082C306F083C307F096EC21F017C304F04E
:1053860018C305F019C306F01AC307F0E8EC20F0BD
:10539600E80E046E030E056E000E066E076EE8EC50
:1053A60020F0C3DD00C0CEF201C0CFF202C0D0F2C1
:1053B60003C0D1F2010E0301846F96DD87EC22F063
:1053C600000E046E000E056E200E066E770E076E3A
:1053D60018EC04F0CD0E046ECC0E056E4C0E066E67
:1053E6007D0E076E51EC0EF000C01DF101C01EF1DE
:1053F60002C01FF103C020F1660E046E660E056E34
:10540600B60E066E810E076E18EC04F0520E046E90
:10541600B80E056E2A0E066E830E076E08EC02F0B5
:1054260000C0D6F201C0D7F202C0D8F203C0D9F24A
:105436009CEC22F0020E0A6E310E0B6E620E0C6EA2
:10544600450E0D6E0D2EFED70C2EFCD70B2EFAD761
:085456000A2EF8D7F9D6FFD7A2
:1058840010EE18F0E30E006E020E016E5E0EF66E60
:0E589400540EF76E000EF86E9FEC23F012001B
:0B545E0041542B43495053454E44007D
:025469003E0003
:03546B004F4B00A4
:10546E00414C524541445920434F4E4E4543540002
:06547E004552524F52009E
:1054840041542B43495053544152543D22544350A8
:10549400222C227468696E67732E756269646F7456
:0C54A400732E636F6D222C223830220022
:0B54B000434F4E4E454354204F4B002D
:0254BB001A00D5
:0854BD0053454E44204F4B0003
:0D54C50041542B434950535441545553005A
:0654D20053544152540046
:0654D8004552524F520044
:0354DE004F4B0031
:0354E1004F4B002E
:1054E40041542B434E4D493D312C312C322C312C1F
:0254F400300086
:0354F6004F4B0019
:0954F90041542B43494943520080
:065502004552524F520019
:0955080041542B43494653520063
:025511002E006A
:0855130047505253414354007C
:03551B004F4B00F3
:06551E004552524F5200FD
:0D55240041542B43495053544154555300FA
:065531004552524F5200EA
:015537003043
:07553800286E756C6C290060
:01553F00006B
:0C55400041542B434950434C4F5345004D
:09554C00434C4F5345204F4B0026
:065555004552524F5200C6
:02555B0000004E
:02555D007805CF
:04555F000000000048
:045563000000000044
:02556700000042
:04556900000000003E
:03556D004F4B00A1
:0B55700041542B434950534855540050
:06557B004552524F5200A0
:065581004552524F52009A
:035587004F4B0087
:0C558A0041542B4349504D55583D300012
:035596004F4B0078
:035599004154007A
:01559C00000E
:03559D004F4B0071
:0355A00041540073
:0655A3004552524F520078
:0655A9004552524F520072
:1055AF0041542B4347515245513D20312C302C3023
:0755BF002C332C302C3000CE
:0355C6004F4B0048
:0355C9004F4B0045
:0355CC004F4B0042
:0355CF004F4B003F
:0A55D20041542B434D47463D310084
:0355DC004F4B0032
:1055DF0041542B4347514D494E3D20312C302C30F7
:0755EF002C302C302C3000A1
:0655F6004552524F520025
:1055FC0041542B435354543D22696E7465726E654D
:10560C00742E6964656173636C61726F222C222243
:04561C002C2222001A
:0D56200041542B43495053544154555300FD
:0B562D00495020494E495449414C00AF
:035638004F4B00D5
:06563B004552524F5200DF
:10564100504F5354202F6170692F76312E362F64BD
:105651006576696365732F70726F796563746F66C0
:105661006173652F3F746F6B656E3D424246462DF7
:105671006D7735684250366A6E71724731496453AD
:10568100686930775969654666395779466A2048AD
:105691005454502F312E310A486F73743A20746874
:1056A100696E67732E756269646F74732E636F6DB3
:1056B1000A436F6E74656E742D547970653A20617A
:1056C10070706C69636174696F6E2F6A736F6E0AB3
:1056D100436F6E74656E742D4C656E6774683A2005
:0156E10000C8
:1056E2007C388C37FC3580342233C43184304E2FE1
:1056F200222E0A2DFC2B022B122A22293C2860275B
:105702008426BC25F42436247823C4221A227A2142
:10571200DA203A20AE1F181F8C1E0A1E881D061D95
:10572200841C0C1C9E1B261BB81A4A1AE6198219E5
:025732000A1952
:105734000000007FCDCC4C7B0AD723786F12037511
:1057440017B75171ACC5276EBD37066B95BF566749
:1057540077CC2B645F700961FFE65B5D08E53C3C38
:045764006042221B62
:105768000000007F000020820000488500007A8841
:1057780000401C8C0050438F002474928096189629
:1057880020BC3E99286B6E9CF90215A0EC782DC1BF
:04579800CAF249E226
:10579C007B226F786967656E6F223A2025352E3231
:1057AC00662C2274656D7065726174757261223A33
:1057BC002025352E32662C227068223A2025352E73
:0457CC0032667D00C4
:1057D000010000000800000040000000000200007E
:1057E0000010000000800000000004000000200005
:1057F0000000000100000008000000400000000060
:10580000010000000A00000064000000E80300003E
:1058100010270000A086010040420F0080969800EB
:0858200000E1F50500CA9A3B06
:10582800010000001000000000010000001000004E
:10583800000001000000100000000001000000103E
:1058480073773D253164202070776D3D2533640DD5
:025858000A0044
:10585A0030313233343536373839616263646566DC
:01586A00003D
:10586B00303132333435363738394142434445468B
:01587B00002C
:05587C0025750A0A0079
:035881000D0A000D
:020000040030CA
:0E000000240E3E1EFF8381FF0FC00FE00F4055
:00000001FF
