:10000000DFEF08F00000000000EF00F0000000004B
:0A0010000000000000000000F3D71C
:0A001C00530E0D6E0D2EFED71200DC
:10002600240E0C6EB50E0D6E0D2EFED70C2EFCD7C3
:06003600000000001200B2
:0E003C00026A016A006A086A036A000E120076
:10004A000B820BAE2FEF00F00368026801680068AC
:08005A000A360232FF0E12000B
:100062000B840BAE3CEF00F0010E036E026A016AD4
:0A007200006A0A360232FF0E120087
:08007C000AAE029E000E120004
:0C0084000000000000000000000012005E
:0E009000810E0D6E0D2EFED700000000120036
:10009E000CB091EF00F00CA237EF01F00E6A000EDB
:1000AE000264A8EF00F0F00E0214D8A473EF00F073
:1000BE00023A01380F0B02260138F00B016E0038A0
:1000CE000F0B01260038F00B006E08380F0B0026C0
:1000DE000838F00B086E0E84D89002BE8CEF00F03C
:1000EE0008360036013602360E2A02BE8CEF00F0BC
:1000FE0008360036013602360E2A02BE8CEF00F0AC
:10010E0008360036013602360E2A0E5003642DEFE5
:10011E0001F0035E0BBC08AE32EF01F0D880800E0A
:10012E0008640030000E002201220222D8A032EF15
:10013E0001F0023201320032034A37EF01F032EFA2
:10014E0001F001C002F000C001F008C000F0086A22
:10015E00000E0E860264DFEF00F0F00E0214D8A43B
:10016E00C7EF00F0023A01380F0B02260138F00BF0
:10017E00016E00380F0B01260038F00B006E0E8456
:10018E00D89002BE8CEF00F00036013602360E2AF1
:10019E0002BE8CEF00F00036013602360E2A02BE89
:1001AE008CEF00F00036013602360E2A8CEF00F08E
:1001BE0001C002F000C001F0006A000E0E960E881B
:1001CE0002640CEF01F0F00E0214D8A4F7EF00F069
:1001DE00023A01380F0B02260138F00B016E0E8425
:1001EE00D89002BE8CEF00F0013602360E2A02BE07
:1001FE008CEF00F0013602360E2A02BE8CEF00F0B4
:10020E00013602360E2A8CEF00F001C002F0016AB0
:10021E00000E0E8602643CEF01F0F00E0214D8A41C
:10022E001BEF01F0023A0E84D89002BE8CEF00F064
:10023E0002360E2A02BE8CEF00F002360E2A02BEE5
:10024E008CEF00F002360E2A8CEF00F0010E0C6ED1
:10025E0001DF3FEF01F0020E0C6E09DF3FEF01F000
:10026E00040E0C6EEBDE3FEF01F0080E0C6EDFDEBF
:02027E0012006C
:100280000001A6BF02D08A9A01D08A8AA6BD02D0F8
:100290008A9801D08A88A6BB02D08A9601D08A8625
:1002A000A6B902D08A9401D08A8487B102D08A800C
:1002B00001D08A908A82E6DE8A92A6B702D08A9A14
:1002C00001D08A8AA6B502D08A9801D08A88A6B3BE
:1002D00002D08A9601D08A86A6B102D08A9401D033
:1002E0008A8487B102D08A8001D08A908A82CADE4D
:0E02F0008A9287A102D097DE01D090DE120024
:1002FE00086A096A100E0C6E01340836093604506D
:10030E00085E0550D8A0053C095ED8B007D0045051
:10031E0008260550D8B0053C0926D890003601367F
:06032E000C2EEAD71200BC
:10033400040E0C6E3A0E0D6E0D2EFED70C2EFCD74D
:0403440000001200A3
:100348000C6A0E6A0250D8A4BDEF01F001C002F099
:1003580000C001F0006A0E860250D8A4BDEF01F07B
:1003680001C002F0016A0E960E880250D8B4CFEF91
:1003780001F00E50035ED8A4D8A0D4EF01F0D890B5
:1003880002BED9EF01F0003601360236032EC4EF63
:1003980001F0D4EF01F0010E0C6E4CDEDCEF01F041
:1003A800020E0C6E5ADEDCEF01F0040E0C6E62DEFB
:0203B800120031
:1003BA000A6A0350D8A40A800750D8A40A820A50AD
:1003CA00D8B440EF02F0030AD8B4F9EF01F00AB04A
:1003DA00F4EF01F006AE3EEF02F03CEF02F002AE9F
:1003EA003CEF02F03EEF02F00250800B0A6E029ED2
:1003FA000650800B069E0A18D8B40AEF02F00A507B
:10040A00D8B43CEF02F03EEF02F00750035CD8B4D8
:10041A0014EF02F0D8A030EF02F036EF02F00650E7
:10042A00025CD8B41EEF02F0D8A030EF02F036EF2B
:10043A0002F00550015CD8B428EF02F0D8A030EFE2
:10044A0002F036EF02F00450005CD8B440EF02F03C
:10045A00D8B036EF02F00A52D8B43EEF02F03CEFC1
:10046A0002F00A52D8B43CEF02F03EEF02F0D88014
:0E047A001200D8901200D880D8841200120010
:100488000B800BAE50EF02F0026A0AAEFF0E026E4E
:0C049800016E006E0A360232FF0E1200E8
:1004A4000001A36B050EA35D0AE2A351A125E16E31
:1004B400000EA221E26E200EE66EA32BF3D7A35109
:1004C400A125E16E000EA221E26EE66AA307A35104
:1004D400A125A46F000EA221A56F0A0E046E000EC2
:1004E400056E9FC000F0A0C001F007DF08C000F057
:1004F40009C001F0300E0026A4C0E1FFA5C0E2FF50
:1005040000C0E6FF0A0E046E000E056E9FC000F0E8
:10051400A0C001F0F2DE00C09FF001C0A0F0000E08
:10052400011802E1000E001801E102D0A307CFD7A1
:020534001200B3
:10053600A1C001F0010E006E015004E000360090EB
:10054600FF0FFBD700C0A3F0001E9FC0E9FFA0C0AD
:10055600EAFF0050EF16120EE9260050EF16E7DE0E
:100566000001A351EF12120EE95E8FDDA351EF14C5
:10057600A26FA251000A000ED8A4010EA26FD7DE08
:06058600A2C000F012000B
:10058C00086A096A000E076203644BEF03F002501D
:10059C0006180A6E075003267E0ED8A0DCEF02F078
:1005AC00035ED8B04FEF03F0E0EF02F0035ED8A08B
:1005BC0053EF03F0028E068E02C00EF001C00BF05A
:1005CC0000C00DF000500402F4CF0CF001500502F5
:1005DC00F4CF00F0F3CF08F00402F3500C26F450E3
:1005EC000822000E00220D500502F3500C26F45088
:1005FC000822000E002202500402F3500826F45088
:10060C00002202500502016A000E0122F35000265E
:10061C00F45001220D500602F3500826F45000222B
:10062C00026A000E012202220B500602F350002631
:10063C00F4500122000E02220E500602F350012645
:10064C00F450022202BE33EF03F0083600360136B6
:10065C0002360306D8B453EF03F046EF03F0D8800C
:10066C00800E08640030000E002201220222D8A065
:10067C0046EF03F0023201320032034A4FEF03F02F
:10068C000AAE029E000E55EF03F0010ED1DC55EFC1
:10069C0003F0020ED4DC55EF03F0040EDCDC120088
:1006AC00A1C001F0010E006E015004E00036009074
:1006BC00FF0FFBD700C0A5F0001C0001A46FA36BBB
:1006CC009FC0E9FFA0C0EAFFA26BA251070820E37C
:1006DC00A451EF16120EE926A451EF16CDDCA5514C
:1006EC00EF12CADC120EE95EA551EF14006E0CE09D
:1006FC00A2C001F0010E006E015004E00036009023
:10070C00FF0FFBD70050A31383DC82DCA22BDDD7B9
:06071C00A3C000F0120072
:10072200A1C001F0010E006E015004E000360090FD
:10073200FF0FFBD700C0A5F0001E00C0A4F09FC0B1
:10074200E9FFA0C0EAFF0050EF16120EE9260001F1
:10075200A36BA351070815E3A3C000F0A2C001F0E8
:10076200005004E00132019EFF0FFBD7A451EF16A7
:1007720001A002D0A551EF128ADCA551EF12A32BE2
:0C078200E8D7120EE95E49DC48DC1200EA
:10078E000050086E0150006E016A026A036A0B6A1D
:10079E000C6A960E036E0A6A00C001F008C000F0E3
:0807AE00086A026ACADD1200AC
:1007B600025006180E6E086A096A0B6A035007642F
:1007C600CEEF04F006500A6E068E028E03500B6EB4
:1007D6000750036E000E0B641EEF04F00B50075E0D
:1007E600D8B4BFEF04F0070E07648DEF04F0075E80
:1007F60000C008F001C000F002C001F0026A074E16
:10080600BFEF04F0076462EF04F0075E00C008F073
:1008160001C000F0016A074EBFEF04F0076440EF25
:1008260004F0075E00C008F0006A074EBFEF04F050
:10083600076427EF04F00AC002F005C001F004C007
:1008460000F0086AEBEF05F0030E076432EF04F0E0
:10085600075E08380F0B086E074EBFEF04F0D890FE
:100866000832074EBFEF04F0D8900832074EBFEFAC
:1008760004F0D8900832BFEF04F0030E076451EF7E
:1008860004F0075E08380F0B086E0038F00B0826D8
:1008960000380F0B006E074EBFEF04F0D890003201
:1008A6000832074EBFEF04F0D89000320832074EE8
:1008B600BFEF04F0D89000320832BFEF04F0030E09
:1008C600076479EF04F0075E08380F0B086E0038EE
:1008D600F00B082600380F0B006E0138F00B0026CF
:1008E60001380F0B016E074EBFEF04F0D8900132AE
:1008F60000320832074EBFEF04F0D89001320032C2
:100906000832074EBFEF04F0D890013200320832A9
:10091600BFEF04F0030E0764AAEF04F0075E083881
:100926000F0B086E0038F00B082600380F0B006E10
:100936000138F00B002601380F0B016E0238F00B60
:10094600012602380F0B026E074EBFEF04F0D89057
:100956000232013200320832074EBFEF04F0D8905F
:100966000232013200320832074EBFEF04F0D8904F
:100976000232013200320832096A000E0EAEB3EFBF
:1009860005F0081E001E011E021E082A0022012272
:100996000222B3EF05F00750D8A4D4EF04F0EBEF32
:1009A60005F0096A02C00AF0028E068E0750035C43
:1009B600076ED8B4A6EF05F0070E076474EF05F0CE
:1009C600075E0450096E0550046E0650056E066AF1
:1009D600074EA6EF05F0070E076449EF05F0075E20
:1009E6000450096E0550046E056A074EA6EF05F021
:1009F600070E076427EF05F0075E0450096E046AC8
:100A0600074EA6EF05F0070E07640EEF05F00AC0C5
:100A160002F0EBEF05F0030E076419EF05F0075E31
:100A260009380F0B096E074EA6EF05F0D89009326C
:100A3600074EA6EF05F0D8900932074EA6EF05F04F
:100A4600D8900932A6EF05F0030E076438EF05F0DB
:100A5600075E09380F0B096E0438F00B09260438B7
:100A66000F0B046E074EA6EF05F0D890043209323C
:100A7600074EA6EF05F0D89004320932074EA6EFCE
:100A860005F0D89004320932A6EF05F0030E07648C
:100A960060EF05F0075E09380F0B096E0438F00B9E
:100AA600092604380F0B046E0538F00B04260538AA
:100AB6000F0B056E074EA6EF05F0D89005320432EF
:100AC6000932074EA6EF05F0D890053204320932F6
:100AD600074EA6EF05F0D890053204320932A6EF8C
:100AE60005F0030E076491EF05F0075E09380F0B5A
:100AF600096E0438F00B092604380F0B046E05380E
:100B0600F00B042605380F0B056E0638F00B05268C
:100B160006380F0B066E074EA6EF05F0D890063284
:100B2600053204320932074EA6EF05F0D890063298
:100B3600053204320932074EA6EF05F0D890063288
:100B4600053204320932086A000E0EAEB3EF05F024
:100B5600091E041E051E061E092A04220522062257
:100B66000950082604500022055001220650022290
:100B76000EBECAEF05F0D8A0D9EF05F00232013259
:100B860000320832033ED9EF05F0E5EF05F0D8B0A4
:100B9600DFEF05F0000E081E001E011E021E082AC9
:100BA6000022012202220A7EDFEF05F0010E0C6E02
:100BB6004FEC00F0EDEF05F0020E0C6E4FEC00F07E
:100BC600EDEF05F0040E0C6E25EC00F0EDEF05F0F0
:060BD600000E0C6E12007F
:100BDC00000187919FC0A6F040EC01F087811200C4
:060BEC0090C0ADFF1200F5
:100BF20010D0800E0001906F1AD0C00E906F17D0E7
:100C0200940E906F14D0D40E906F11D0800E906F0E
:100C12000ED000019051010AECE09051020AEDE081
:100C22009051030AEDE09051040AEDE0EFD79105EF
:100C3200006E9051002600C090F000C0A6F040EC7B
:100C420001F08791946B94519225E96E000E9321E5
:100C5200EA6EEE520BE094519225E96E000E93215A
:100C6200EA6EEECF9FF0B9DF942BEDD787811200A9
:100C72000900F5CFE6FF0006FBE10106F9E11200EB
:100C820093929390939493969398939A8A928A903C
:100C92008A9A8A988A968A9413EC00F013EC00F0F0
:100CA20013EC00F08A868A848A8242EC00F08A92EF
:100CB20013EC00F08A8242EC00F08A9213EC00F00E
:100CC2008A8242EC00F08A9213EC00F08A948A82C3
:100CD20042EC00F08A9213EC00F08A8242EC00F0BF
:100CE2008A928A968A8A8A8242EC00F08A9213EC6D
:100CF20000F08A9A8A848A8242EC00F08A928A946C
:100D02008A8242EC00F08A9213EC00F08A8242EC72
:100D120000F08A928A848A8242EC00F08A9213EC72
:100D220000F08A948A8242EC00F08A928A8A8A8847
:100D32008A868A848A8242EC00F08A9213EC00F05E
:060D420000018781120090
:100D48000B6A0350D8B4EAEF06F002500A6E028E1E
:100D58008E0E035E03AEEEEF06F0036C080E035C26
:100D6800D8A0C9EF06F0036E013602C001F0026A8E
:100D7800080E035CD8A0C9EF06F0036E0136016ABD
:100D88000350D8A4D890D3EF06F00350D8B4D3EFCB
:100D980006F0D89002320132032ECDEF06F00BBCDC
:100DA80001A0E0EF06F0D8A0E0EF06F0012AD8B4E1
:100DB800022A02BEFDEF06F00AAE03EF07F0021E9C
:100DC800011E012AD8B4022A03EF07F0026A016A59
:100DD80003EF07F00B800BAE07EF07F0026A0AAECD
:100DE80007EF07F0FF0E026E016E0A36023207EFB8
:100DF80007F0010E0C6E44EC02F009EF07F0000E4C
:100E08000C6E09EF07F0FF0E0C6E0150006E0250D9
:040E1800016E120055
:100E1C00949CCF0EAF6EAC94AC98AC92AB8EB89851
:0C0E2C00B896AC9CAC8AAB9CAB88120062
:100E38000001966B976B90C098F091C099F0800E66
:100E48009119006E800E005C02E1000E905D0BE2CD
:100E5800010E966F000E976F90510008986F91C021
:100E680099F0000E995798C09FF099C0A0F092C0D1
:100E7800A1F093C0A2F052EC02F0060E946F000E9F
:100E8800956F000E006E9551005C02E194510008C8
:100E980019E294519225E16E95519321E26E010E6B
:100EA800945D006E000E9559016E00509225E96E12
:100EB80001509321EA6EEECFE6FF010E945F000E1B
:100EC800955BDFD792C0E1FF93C0E2FF200EE66E8C
:100ED800965197111AE0946B956B94519225E96E8F
:100EE80095519321EA6EEE50200A03E1944B952B1D
:100EF800F4D7010E945F000E955B94519225E16E34
:0C0F080095519321E26E2D0EE66E120052
:100F1400000E00019B6F000E9C6F000E9D6F7F0EF4
:100F24009E6F90C09FF091C0A0F092C0A1F09BEC86
:100F340002F0750E0C6EE10E0D6E0D2EFED70C2E0A
:100F4400FCD790C09FF091C0A0F092C0A1F0CC0E4D
:100F5400A26F91EC03F0070E0C6E7D0E0D6E0D2E3C
:100F6400FED70C2EFCD790C09FF091C0A0F092C089
:100F7400A1F0440EA26F91EC03F0040E0B6ECF0EA1
:100F84000C6E010E0D6E0D2EFED70C2EFCD70B2E03
:100F9400FAD70000000090C09FF091C0A0F092C06A
:100FA400A1F09BEC02F0750E0C6EE10E0D6E0D2E91
:100FB400FED70C2EFCD790C09FF091C0A0F092C039
:100FC400A1F0CC0EA26F91EC03F0070E0C6E7D0E17
:100FD4000D6E0D2EFED70C2EFCD790C09FF091C045
:100FE400A0F092C0A1F0BE0EA26F91EC03F0070E28
:100FF4000C6E7D0E0D6E0D2EFED70C2EFCD790C000
:101004009FF091C0A0F092C0A1F056EC03F000C094
:1010140099F090C09FF091C0A0F092C0A1F056EC5E
:1010240003F000C093F0000E946F93C094F0936BA0
:1010340099519313000E941300AE0CD0931F941F78
:10104400934B942B000E9B6F000E9C6F800E9D6F34
:101054007F0E9E6F94339333949F94339333949F72
:1010640094339333949F94339333949F0F0E991531
:101074009A6F956B966B976B986B9AA71AD095C0DD
:1010840000F096C001F097C002F098C003F0000E83
:10109400046E000E056E000E066E7E0E076EDBEC0F
:1010A40003F000C095F001C096F002C097F003C0B1
:1010B40098F09AA51AD095C000F096C001F097C098
:1010C40002F098C003F0000E046E000E056E000ED0
:1010D400066E7D0E076EDBEC03F000C095F001C0D8
:1010E40096F002C097F003C098F09AA31AD095C066
:1010F40000F096C001F097C002F098C003F0000E13
:10110400046E000E056E000E066E7C0E076EDBECA0
:1011140003F000C095F001C096F002C097F003C040
:1011240098F09AA11AD095C000F096C001F097C02B
:1011340002F098C003F0000E046E000E056E000E5F
:10114400066E7B0E076EDBEC03F000C095F001C069
:1011540096F002C097F003C098F0046A056A066A24
:10116400076A9BC000F09CC001F09DC002F09EC0C5
:1011740003F0DDEC01F0010ED8B0000E006E005259
:10118400D8A4977F93C000F094C001F0C7EC03F09B
:101194009BC004F09CC005F09DC006F09EC007F003
:1011A400C6EC02F095C004F096C005F097C006F0B6
:0A11B40098C007F0DBEC03F0120016
:1011BE00540E156E650E166E6D0E176E700E186E41
:1011CE00200E196E650E1A6E6E0E1B6E760E1C6E4E
:1011DE00690E1D6E610E1E6E640E1F6E610E206E08
:1011EE003A0E216E226A760ED36E0F0EC16E42DD5E
:1011FE000C0EA66F40EC01F0010EA66F40EC01F054
:10120E00010E906F010E916F150E926F000E936F7F
:10121E00E9DCFDDD8E6B8F6B800E906F0F0E916F84
:10122E00020E926F70DE00C08AF001C08BF002C019
:10123E008CF003C08DF00D0E0B6EAF0E0C6EB60E55
:10124E000D6E0D2EFED70C2EFCD70B2EFAD70000EE
:10125E008AC000F08BC001F08CC002F08DC003F08C
:10126E006CDD00C088F001C089F000C090F001C0B4
:10127E0091F0230E926F000E936FD7DD8E4B8F2B56
:10128E008EC090F08FC091F0550E926F000E936F3E
:10129E00CCDD010E906F090E916F550E926F000E00
:1012AE00936FA0DC020E906F010E916F230E926F62
:1012BE00000E936F97DC88C090F089C091F08FDCA0
:1012CE00820E0C6EDD0E0D6E0D2EFED70C2EFCD783
:0812DE0000000000A1D7FFD7BA
:020000040030CA
:0E000000240B1E1EFF8381FF0FC00FE00F4078
:00000001FF
